:100000000C942A000C94DC000C9405010C942E0135
:100010000C9447000C9447000C9447000C94470044
:100020000C9447000C9447000C9447000C94470034
:100030000C9447000C9447000C9447000C94470024
:100040000C9447000C9447000C9447000C94470014
:100050000C94470011241FBECFE5D8E0DEBFCDBF12
:1000600010E0A0E6B0E0EAE4F7E002C005900D92EF
:10007000A238B107D9F720E0A2E8B0E001C01D9294
:10008000A838B207E1F70E949B030C94A3030C94D9
:1000900000008FB780688FBF08958FB78F778FBFAD
:1000A00008959BB721E030E001C0220F8A95EAF75E
:1000B000922B9BBF0895623069F150F4611113C017
:1000C000863049F485B78E7F85BF85B78D7F12C096
:1000D000633079F10895853071F485B78B7F85BFE2
:1000E00085B7877F07C0863039F485B78E7F85BF97
:1000F00085B7826085BF0895853031F485B78B7FE1
:1001000085BF85B78860F6CF8730A9F784B78F7B26
:1001100084BF0895863019F485B78160E8CF8530B3
:1001200019F485B78460ECCF873029F784B78064F1
:10013000EFCF863019F485B78160C6CF8530D9F608
:1001400085B78460CCCF9AB721E030E001C0220FA0
:100150008A95EAF7922B9ABF0895CF93DF93C82F21
:10016000D62F0E9449008C2F0E94A3008BB721E05C
:1001700030E00C2E01C0220F0A94EAF7822B8BBFCD
:100180006D2F8C2FDF91CF910C945B00863029F07E
:10019000873069F0853031F0089560938600709360
:1001A000870008956093840070938500089560939C
:1001B00082007093830008951F920F920FB60F92E2
:1001C00011242F933F934F935F936F937F938F935C
:1001D0009F93AF93BF93EF93FF93E0918600F091CD
:1001E0008700309709F00995FF91EF91BF91AF918A
:1001F0009F918F917F916F915F914F913F912F913F
:100200000F900FBE0F901F9018951F920F920FB670
:100210000F9211242F933F934F935F936F937F938C
:100220008F939F93AF93BF93EF93FF93E0918400DD
:10023000F0918500309709F00995FF91EF91BF91FA
:10024000AF919F918F917F916F915F914F913F916E
:100250002F910F900FBE0F901F9018951F920F9225
:100260000FB60F9211242F933F934F935F936F9389
:100270007F938F939F93AF93BF93EF93FF93E091FF
:100280008200F0918300309709F00995FF91EF917A
:10029000BF91AF919F918F917F916F915F914F919E
:1002A0003F912F910F900FBE0F901F901895FC015A
:1002B0009A014115510521F04130510579F0089519
:1002C000208181E090E0AC0102C0440F551F6A9587
:1002D000E2F7BA016095622360830895808101C0CE
:1002E000220F6A95EAF7822B80830895FC0161153D
:1002F000710531F06130710521F48FEF808308952D
:10030000108208950C945701FC01808190E002C096
:10031000959587956A95E2F781700895FC01608351
:100320000895FC01808121E030E001C0220F6A9530
:10033000EAF7822B80830895FC018FEF8083089574
:10034000FC019A014115510559F041305105A9F4BC
:10035000808101C0220F6A95EAF7822B808308957D
:10036000208181E090E0AC0102C0440F551F6A95E6
:10037000E2F7BA016095622360830895FC0161157C
:10038000710531F06130710521F48FEF808308959C
:100390001082089540E050E060E070E087E390E074
:1003A0000E94570140E050E061E070E087E390E098
:1003B0000E94570140E050E062E070E087E390E087
:1003C0000E94570140E050E063E070E087E390E076
:1003D0000E94570141E050E064E070E087E390E064
:1003E0000E94570141E050E065E070E087E390E053
:1003F0000E94570141E050E066E070E087E390E042
:100400000E94570141E050E067E070E087E390E030
:100410000E94570141E050E060E070E088E390E026
:100420000E94820141E050E061E070E088E390E0EA
:100430000E94820141E050E062E070E088E390E0D9
:100440000E94820141E050E063E070E088E390E0C8
:100450000C948201CF92DF92EF92FF920F931F9341
:10046000CF93DF9324E7E22E20E0F22E00E010E0AD
:10047000C4E7D0E0699170E041E050E088E390E0AB
:100480000E94820180E0C837D807A1F7F701619187
:100490007F0170E040E050E088E390E00E9482013C
:1004A00090E7C92E90E0D92EC0E0D0E0F60161912E
:1004B0006F0170E086E390E00E948401811120C00A
:1004C000CE0180599F4F7C01F701608170E086E387
:1004D00090E00E9484018115B9F3CC0FDD1FCC0F91
:1004E000DD1FC05ADF4FFE01E00FF11F8081DF9159
:1004F000CF911F910F91FF90EF90DF90CF900895D3
:100500002196C430D10591F60F5F1F4F04301105BD
:1005100009F0AECF8FEFEBCFFC018FEF8083089512
:100520009B01FA01EF2B21F04130510539F008957C
:1005300028583F4FF90160810C948E0128583F4F95
:10054000F90160816095F8CF9B01FA01EF2B21F052
:100550004130510541F0089528583F4FF90160811D
:100560006F5F0C948E0128583F4FF90120816EEF88
:10057000621BF7CFCF93C82F40E050E060E070E0FF
:100580008BE390E00E94820140E050E061E070E087
:100590008BE390E00E9482016C2F85E390E00E9443
:1005A0008E0141E050E062E070E08BE390E00E9459
:1005B00082018FE99FE00197F1F700C0000040E061
:1005C00050E062E070E08BE390E0CF910C94820108
:1005D00041E050E062E070E08AE390E00E94570161
:1005E00041E050E060E070E08AE390E00E94570153
:1005F00041E050E061E070E08AE390E00E94570142
:1006000061E070E084E390E00E9476012FEB8AEDD8
:1006100090E0215080409040E1F700C000008CE362
:100620000E94BA028FEC97E00197F1F700C000003A
:100630008CE00E94BA028FEC97E00197F1F700C0BE
:10064000000081E00E94BA028FE99FE00197F1F774
:1006500000C0000086E00E94BA028FEC97E001978C
:10066000F1F700C000000895CF93C82F41E050E09B
:1006700060E070E08BE390E00E94820140E050E097
:1006800061E070E08BE390E00E9482016C2F85E3D3
:1006900090E00E948E018FEC97E00197F1F700C087
:1006A000000041E050E062E070E08BE390E00E94E7
:1006B00082018FEC97E00197F1F700C0000040E065
:1006C00050E062E070E08BE390E0CF910C94820107
:1006D0000F931F93CF93DF938B018770885F880FF1
:1006E000880F880F0E94BA02E801085F1F4F8991A6
:1006F0000E943403C017D107D1F780E8DF91CF9172
:100700001F910F910C94BA028111605C862F806852
:100710000C94BA020E94E8020C94CA010E942A02B8
:100720008F3F41F00E9434038FE59AEE0197F1F775
:1007300000C0000008950E948A0381E40E943403EF
:0A0740000E948E03FDCFF894FFCF56
:10074A003738392F3435362A3132332D63303D2B41
:10075A000001020304050607FC60DAF266B6BEE091
:02076A00FEF699
:00000001FF
