:100000000C942A000C94DC000C9405010C942E0135
:100010000C9447000C9447000C9447000C94470044
:100020000C9447000C9447000C9447000C94470034
:100030000C9447000C9447000C9447000C94470024
:100040000C9447000C9447000C9447000C94470014
:100050000C94470011241FBECFE5D8E0DEBFCDBF12
:1000600010E0A0E6B0E0ECEBF3E102C005900D92E9
:10007000A039B107D9F721E0A0E9B0E001C01D9295
:10008000AC35B207E1F70E9434040C94DC090C94FF
:1000900000008FB780688FBF08958FB78F778FBFAD
:1000A00008959BB721E030E001C0220F8A95EAF75E
:1000B000922B9BBF0895623069F150F4611113C017
:1000C000863049F485B78E7F85BF85B78D7F12C096
:1000D000633079F10895853071F485B78B7F85BFE2
:1000E00085B7877F07C0863039F485B78E7F85BF97
:1000F00085B7826085BF0895853031F485B78B7FE1
:1001000085BF85B78860F6CF8730A9F784B78F7B26
:1001100084BF0895863019F485B78160E8CF8530B3
:1001200019F485B78460ECCF873029F784B78064F1
:10013000EFCF863019F485B78160C6CF8530D9F608
:1001400085B78460CCCF9AB721E030E001C0220FA0
:100150008A95EAF7922B9ABF0895CF93DF93C82F21
:10016000D62F0E9449008C2F0E94A3008BB721E05C
:1001700030E00C2E01C0220F0A94EAF7822B8BBFCD
:100180006D2F8C2FDF91CF910C945B00863029F07E
:10019000873069F0853031F0089560939400709352
:1001A0009500089560939200709393000895609372
:1001B00090007093910008951F920F920FB60F92C6
:1001C00011242F933F934F935F936F937F938F935C
:1001D0009F93AF93BF93EF93FF93E0919400F091BF
:1001E0009500309709F00995FF91EF91BF91AF917C
:1001F0009F918F917F916F915F914F913F912F913F
:100200000F900FBE0F901F9018951F920F920FB670
:100210000F9211242F933F934F935F936F937F938C
:100220008F939F93AF93BF93EF93FF93E0919200CF
:10023000F0919300309709F00995FF91EF91BF91EC
:10024000AF919F918F917F916F915F914F913F916E
:100250002F910F900FBE0F901F9018951F920F9225
:100260000FB60F9211242F933F934F935F936F9389
:100270007F938F939F93AF93BF93EF93FF93E091FF
:100280009000F0919100309709F00995FF91EF915E
:10029000BF91AF919F918F917F916F915F914F919E
:1002A0003F912F910F900FBE0F901F901895FC015A
:1002B0009A014115510521F04130510579F0089519
:1002C000208181E090E0AC0102C0440F551F6A9587
:1002D000E2F7BA016095622360830895808101C0CE
:1002E000220F6A95EAF7822B80830895FC0161153D
:1002F000710531F06130710521F48FEF808308952D
:10030000108208950C945701FC01808190E002C096
:10031000959587956A95E2F781700895FC01608351
:100320000895FC01808121E030E001C0220F6A9530
:10033000EAF7822B80830895FC018FEF8083089574
:10034000FC019A014115510559F041305105A9F4BC
:10035000808101C0220F6A95EAF7822B808308957D
:10036000208181E090E0AC0102C0440F551F6A95E6
:10037000E2F7BA016095622360830895FC0161157C
:10038000710531F06130710521F48FEF808308959C
:100390001082089540E050E060E070E087E390E074
:1003A0000E94570140E050E061E070E087E390E098
:1003B0000E94570140E050E062E070E087E390E087
:1003C0000E94570140E050E063E070E087E390E076
:1003D0000E94570141E050E064E070E087E390E064
:1003E0000E94570141E050E065E070E087E390E053
:1003F0000E94570141E050E066E070E087E390E042
:100400000E94570141E050E067E070E087E390E030
:100410000E94570141E050E060E070E088E390E026
:100420000E94820141E050E061E070E088E390E0EA
:100430000E94820141E050E062E070E088E390E0D9
:100440000E94820141E050E063E070E088E390E0C8
:100450000C948201CF92DF92EF92FF920F931F9341
:10046000CF93DF9324E7E22E20E0F22E00E010E0AD
:10047000C4E7D0E0699170E041E050E088E390E0AB
:100480000E94820180E0C837D807A1F7F701619187
:100490007F0170E040E050E088E390E00E9482013C
:1004A00090E7C92E90E0D92EC0E0D0E0F60161912E
:1004B0006F0170E086E390E00E948401811120C00A
:1004C000CE0180599F4F7C01F701608170E086E387
:1004D00090E00E9484018115B9F3CC0FDD1FCC0F91
:1004E000DD1FC05ADF4FFE01E00FF11F8081DF9159
:1004F000CF911F910F91FF90EF90DF90CF900895D3
:100500002196C430D10591F60F5F1F4F04301105BD
:1005100009F0AECF8FEFEBCFFC018FEF8083089512
:100520009B01FA01EF2B21F04130510539F008957C
:1005300028583F4FF90160810C948E0128583F4F95
:10054000F90160816095F8CF9B01FA01EF2B21F052
:100550004130510541F0089528583F4FF90160811D
:100560006F5F0C948E0128583F4FF90120816EEF88
:10057000621BF7CFCF93C82F40E050E060E070E0FF
:100580008BE390E00E94820140E050E061E070E087
:100590008BE390E00E9482016C2F85E390E00E9443
:1005A0008E0141E050E062E070E08BE390E00E9459
:1005B00082018FE99FE00197F1F700C0000040E061
:1005C00050E062E070E08BE390E0CF910C94820108
:1005D00041E050E062E070E08AE390E00E94570161
:1005E00041E050E060E070E08AE390E00E94570153
:1005F00041E050E061E070E08AE390E00E94570142
:1006000061E070E084E390E00E9476012FEB8AEDD8
:1006100090E0215080409040E1F700C000008CE362
:100620000E94BA028FEC97E00197F1F700C000003A
:100630008CE00E94BA028FEC97E00197F1F700C0BE
:10064000000081E00E94BA028FE99FE00197F1F774
:1006500000C0000086E00E94BA028FEC97E001978C
:10066000F1F700C000000895CF93C82F41E050E09B
:1006700060E070E08BE390E00E94820140E050E097
:1006800061E070E08BE390E00E9482016C2F85E3D3
:1006900090E00E948E018FEC97E00197F1F700C087
:1006A000000041E050E062E070E08BE390E00E94E7
:1006B00082018FEC97E00197F1F700C0000040E065
:1006C00050E062E070E08BE390E0CF910C94820107
:1006D0000F931F93CF938C01C0E0F801EC0FF11D35
:1006E0008081811104C0CF911F910F9108950E94C4
:1006F0003403CF5FF2CF81E00C94BA020F931F93C3
:10070000CF93DF938B018770885F880F880F880FE6
:100710000E94BA02E801085F1F4F89910E943403CA
:10072000C017D107D1F780E8DF91CF911F910F91CA
:100730000C94BA028111605C862F80680C94BA0216
:100740004F925F926F927F928F929F92AF92BF92E1
:10075000CF92DF92EF92FF920F931F93CF93DF938D
:10076000C091B800D091B900C230D1050CF45DC081
:100770008091960090919700181619060CF055C0BC
:100780008E0101501109F801EE0FFF1FEE0FFF1F40
:10079000E654FF4F80809180A280B3802297CC0FD7
:1007A000DD1FCC0FDD1FFE01E654FF4F408051805E
:1007B000628073800197909397008093960088568B
:1007C0009F4FFC0180818D3209F440C054F48A327D
:1007D00009F443C08B32B9F060E070E080E090E053
:1007E00018C08F32C9F720E030E0A901C501B4017B
:1007F0000E940708811581F3A5019401C301B2018C
:100800000E940C0806C0A3019201C501B4010E9418
:100810009B071093B9000093B800C654DF4F6B01DB
:100820007C01C882D982EA82FB82DF91CF911F913D
:100830000F91FF90EF90DF90CF90BF90AF909F907F
:100840008F907F906F905F904F900895A5019401D5
:10085000C301B2010E949A07DCCFA3019201C50136
:10086000B4010E946609D5CFCDB7DEB7CF56D10906
:100870000FB6F894DEBF0FBECDBF0E94E8020E9403
:10088000CA010E947B0382E890E00E9468039E01F7
:100890002F5E3F4F3E8F2D8FAE014F5F5F4F58A3AE
:1008A0004F8F0E942A028F3FE1F3833659F4109252
:1008B0003A0110923B010E947B0382E890E00E9483
:1008C000680352C2E0913A018D3309F0E5C2F0E0CD
:1008D000E55CFE4F108210929700109296001092E5
:1008E000B9001092B800C12CD12CF601E55CFE4F86
:1008F0001081111169C0809196009091970018168F
:1009000019060CF4E0C18091B8009091B900A12CB7
:10091000B12CC12CD12C7601181619066CF5880F54
:10092000991F880F991FFC01EA54FF4FC080D180A6
:10093000E280F3806C961FAE6C976D961FAE6D973C
:100940006E961FAE6E976F961FAE6F976F962CAD1B
:100950003DAD4EAD5FAD6F97C701B6010E94070870
:10096000A12C87FF08C08DE28983F7FAF094F7F88D
:10097000F094AA24A394B12CC701B6010E947E086A
:100980006DA37EA38FA398A78DA19EA1009709F4C4
:100990009DC18E010F5E1F4FFC0120E030E01E164E
:1009A0001F060CF097C12B30310509F493C1CF011C
:1009B0006AE070E00E9472072F5F3F4F805DD801B0
:1009C0008D938D01FB01EBCF103221F45FEFC51A3F
:1009D000D50A8BCF80ED810F8A3018F01E3209F0D6
:1009E0002AC1E12CF12C00E010E032C020E030E020
:1009F00040E251E4EBA6FCA60DA71EA76BA57CA5C3
:100A00008DA59EA50E9466097B018C016B2DBB0CF8
:100A1000770B60537109072E000C880B990B0E940D
:100A2000B608EFA6F8AA09AB1AAB2FA538A949A9B1
:100A30005AA96BAB7CAB8DAB9EAB6BA97CA98DA986
:100A40009EA90E949B077B018C018FEFC81AD80AD0
:100A5000F601E55CFE4FB08080ED8B0D8A3030F200
:100A60009EE2B91267C0AFEFCA1ADA0A412C512CC4
:100A700060E8662E7FE3772E812C912CA12CB12C7F
:100A8000F601E55CFE4F2081E0962FAFE097822FC4
:100A900080538A3008F477C028964FAE289729965D
:100AA0005FAE29972A966FAE2A972B967FAE2B972B
:100AB0002B962CAD3DAD4EAD5FAD2B972C968FAEEA
:100AC0002C972D969FAE2D972E96AFAE2E972F96E4
:100AD000BFAE2F972F966CAD7DAD8EAD9FAD2F978E
:100AE0000E940C0860966FAF609761967FAF619728
:100AF00062968FAF629763969FAF639763962CADB4
:100B00003DAD4EAD5FAD63976496EFAE649765966D
:100B1000FFAE659766960FAF669767961FAF6797AC
:100B200067966CAD7DAD8EAD9FAD67970E949B07BC
:100B30007B018C018091B8009091B9009C012F5FDE
:100B40003F4F3093B9002093B800880F991F880F4A
:100B5000991FFC01E654FF4F6896EFAE68976996BF
:100B6000FFAE69976A960FAF6A976B961FAF6B9748
:100B70006B968CAD9DADAEADBFAD6B978083918311
:100B8000A283B383B2CE20E030E040E251E48FAAEA
:100B900098AEA9AEBAAE6FA978AD89AD9AAD0E94F4
:100BA00066094B015C01E096BFADE0976B2FBB0F70
:100BB000770B60537109072E000C880B990B0E946C
:100BC000B6088BAE9CAEADAEBEAE2BAD3CAD4DAD62
:100BD0005EAD6FAF21967FAF219722968FAF2297A0
:100BE00023969FAF239723966CAD7DAD8EAD9FADC1
:100BF00023970E949B074B015C0120E030E040E21C
:100C000051E424964FAE249725965FAE25972696FD
:100C10006FAE269727967FAE279727966CAD7DAD52
:100C20008EAD9FAD27970E9466092B013C01EFEF27
:100C3000CE1ADE0A25CF9FEFC91AD90A80919600F5
:100C400090919700FC01E856FF4F181619065CF5C5
:100C5000DF012E912B3209F434C12D3209F43CC14D
:100C60002A3209F43CC1A1E0A9A71AA62F3209F043
:100C700019A629A53AA5220F331F3CA32BA31B328B
:100C8000C9F01D32D1F01A32D9F01F3209F021C15A
:100C900032E039A31AA22BA13CA149A15AA12417E1
:100CA00035070CF016C1019690939700809396003B
:100CB00010831BCE41E049A3EDCF51E059A3EACF09
:100CC000A2E0A9A3E7CF0E94A00315CE80E3898B01
:100CD00021E030E01501FE017196E20FF31F09C01B
:100CE000DE011196A20DB31D82918C93BFEF2B1ADA
:100CF0003B0A2D8D3E8D2E173F07E9F13FE023166D
:100D0000310471F72FE030E0FE013196E20FF31F5E
:100D100010820E947B038BE391E00E94680360E0F5
:100D200081E00E949A038EE890E00E946803CE0161
:100D300001960E946803EF8DF8A101900020E9F769
:100D400031978F012F8D38A1021B130B00933A01AD
:100D5000A801BE016F5F7F4F8BE391E00E94D30932
:100D6000F801E55CFE4F10828FE39CE90197F1F7F3
:100D700000C0000096CD4FE02416310419F2810125
:100D80000F5F1F4F8EE2FE013196E20DF31D80834F
:100D90005EE02516310409F4B5CFADA1BEA1BD01B9
:100DA000BB0F880B990B0E94B608A0966FAFA09757
:100DB000A1967FAFA197A2968FAFA297A3969FAF60
:100DC000A397A3962CAD3DAD4EAD5FADA397C701E4
:100DD000B6010E949A0720E030E048EC52E4A49665
:100DE0006FAFA497A5967FAFA597A6968FAFA6974E
:100DF000A7969FAFA797A7966CAD7DAD8EAD9FAD23
:100E0000A7970E94660920E030E040E05FE3A896E3
:100E10006FAFA897A9967FAFA997AA968FAFAA9709
:100E2000AB969FAFAB97AB966CAD7DAD8EAD9FADE6
:100E3000AB970E949B07AC966FAFAC97AD967FAF18
:100E4000AD97AE968FAFAE97AF969FAFAF97AF9679
:100E50006CAD7DAD8EAD9FADAF970E947E08CB018E
:100E60006AE070E00E947207A1014E5F5F4FFE01D1
:100E70003196E00FF11F605D6083BDE02B163104F9
:100E800009F440CF91012D5F3F4FFE013196E40FF1
:100E9000F51F805D808338CFE03208F065CF91E0A8
:100EA0009E0F90933A01F0E0E55CFE4F8083E92FBE
:100EB000F0E0E55CFE4F10820E947B038BE391E043
:100EC000FECCA1E0ABA31CA21B3219F01D3209F02D
:100ED000DACE0E94A003B2CEB1E0BBA3F4CF22E0F1
:100EE0002BA3F1CF97FB072E16F4009407D077FDC4
:100EF00009D00E94860707FC05D03EF490958195A5
:100F00009F4F0895709561957F4F0895AA1BBB1B55
:100F100051E107C0AA1FBB1FA617B70710F0A61BF9
:100F2000B70B881F991F5A95A9F780959095BC011A
:100F3000CD0108955058BB27AA270E94B2070C94F0
:100F40002C090E941E0938F00E94250920F039F46E
:100F50009F3F19F426F40C941B090EF4E095E7FB6F
:100F60000C941509E92F0E943D0958F3BA1762073E
:100F700073078407950720F079F4A6F50C945F09B0
:100F80000EF4E0950B2EBA2FA02D0B01B9019001A4
:100F90000C01CA01A0011124FF27591B99F0593FE8
:100FA00050F4503E68F11A16F040A22F232F342F30
:100FB0004427585FF3CF469537952795A795F0407E
:100FC0005395C9F77EF41F16BA0B620B730B840B93
:100FD000BAF09150A1F0FF0FBB1F661F771F881F4B
:100FE000C2F70EC0BA0F621F731F841F48F48795A3
:100FF00077956795B795F7959E3F08F0B0CF939595
:10100000880F08F09927EE0F9795879508950E940D
:10101000F10808F481E008950E9420080C942C093E
:101020000E94250958F00E941E0940F029F45F3FF4
:1010300029F00C94150951110C9460090C941B09AA
:101040000E943D0968F39923B1F3552391F3951B51
:10105000550BBB27AA2762177307840738F09F5FD9
:101060005F4F220F331F441FAA1FA9F335D00E2E46
:101070003AF0E0E832D091505040E695001CCAF7B3
:101080002BD0FE2F29D0660F771F881FBB1F261776
:1010900037074807AB07B0E809F0BB0B802DBF014D
:1010A000FF2793585F4F3AF09E3F510578F00C941C
:1010B00015090C9460095F3FE4F3983ED4F38695DC
:1010C00077956795B795F7959F5FC9F7880F911D3D
:1010D0009695879597F90895E1E0660F771F881F29
:1010E000BB1F621773078407BA0720F0621B730BDC
:1010F000840BBA0BEE1F88F7E09508950E948508CF
:101100006894B1110C94600908950E94450988F013
:101110009F5798F0B92F9927B751B0F0E1F0660FBB
:10112000771F881F991F1AF0BA95C9F714C0B130FC
:1011300091F00E945F09B1E008950C945F09672F58
:10114000782F8827B85F39F0B93FCCF3869577952B
:101150006795B395D9F73EF4909580957095619514
:101160007F4F8F4F9F4F0895E89409C097FB3EF43F
:1011700090958095709561957F4F8F4F9F4F9923E4
:10118000A9F0F92F96E9BB279395F6958795779562
:101190006795B795F111F8CFFAF4BB0F11F460FF22
:1011A0001BC06F5F7F4F8F4F9F4F16C0882311F07A
:1011B00096E911C0772321F09EE8872F762F05C08E
:1011C000662371F096E8862F70E060E02AF09A9529
:1011D000660F771F881FDAF7880F9695879597F91E
:1011E0000895990F0008550FAA0BE0E8FEEF1616B8
:1011F0001706E807F907C0F012161306E407F5070B
:1012000098F0621B730B840B950B39F40A2661F07E
:10121000232B242B252B21F408950A2609F4A14021
:10122000A6958FEF811D811D089597F99F6780E82E
:1012300070E060E008959FEF80EC089500240A9428
:101240001616170618060906089500240A941216A1
:101250001306140605060895092E0394000C11F4D4
:10126000882352F0BB0F40F4BF2B11F460FF04C081
:101270006F5F7F4F8F4F9F4F089557FD9058440FDA
:10128000551F59F05F3F71F04795880F97FB991FE5
:1012900061F09F3F79F087950895121613061406A2
:1012A000551FF2CF4695F1DF08C01616170618062F
:1012B000991FF1CF86957105610508940895E8940A
:1012C000BB2766277727CB0197F908950E947909F4
:1012D0000C942C090E941E0938F00E94250920F068
:1012E000952311F00C9415090C941B0911240C94EE
:1012F00060090E943D0970F3959FC1F3950F50E07E
:10130000551F629FF001729FBB27F00DB11D639FB7
:10131000AA27F00DB11DAA1F649F6627B00DA11D5D
:10132000661F829F2227B00DA11D621F739FB00D03
:10133000A11D621F839FA00D611D221F749F332773
:10134000A00D611D231F849F600D211D822F762F0C
:101350006A2F11249F5750409AF0F1F088234AF0E9
:10136000EE0FFF1FBB1F661F771F881F9150504055
:10137000A9F79E3F510580F00C9415090C94600963
:101380005F3FE4F3983ED4F3869577956795B795DC
:10139000F795E7959F5FC1F7FE2B880F911D9695F6
:1013A000879597F90895FB01DC0102C001900D9229
:0C13B00041505040D8F70895F894FFCF4A
:1013BC003738392F3435362A3132332D63303D2BC3
:1013CC000001020304050607FC60DAF266B6BEE013
:1013DC00FEF643616C63756C61746F723A003D008C
:00000001FF
