:100000000C942A000C9499010C94C2010C94EB01FD
:100010000C9447000C9447000C9447000C94470044
:100020000C9447000C9447000C9447000C94470034
:100030000C9447000C94CC000C94D9000C94DF0075
:100040000C9447000C9447000C9447000C94470014
:100050000C94470011241FBECFE5D8E0DEBFCDBF12
:1000600010E0A0E6B0E0E6EDF9E002C005900D92E8
:10007000A238B107D9F720E0A2E8B0E001C01D9294
:10008000AD38B207E1F70E94C4040C94E9040C9463
:100090000000CF92DF92EF92FF920F93CF936B010C
:1000A0007C01C42F80B58F7780BD211509F43FC036
:1000B000213009F046C0A701960193E0220F331FBB
:1000C000441F551F9A95D1F760E072E18AE790E0EE
:1000D0000E94C7042150310929B930BD80B580681C
:1000E00080BD80B58F7B80BDC13071F1C23091F190
:1000F000C11106C080B58F7E80BD80B58F7D80BD6B
:10010000013059F1023019F480B5886080BD80B5A6
:10011000826080BD80B5846080BD5298539A549AA5
:10012000CF910F91FF90EF90DF90CF900895A701AE
:10013000960184E0220F331F441F551F8A95D1F783
:10014000C3CF20E030E0C8CF80B58F7E80BD80B5C2
:100150008062D5CF80B58061F9CF80B5877FD6CF5B
:10016000FC015F9BFECF8CB1808308955D9BFECF29
:100170008CB95E9A0895579A909383008093820079
:100180000895569A559AFC0180818093840070935B
:1001900086006093850008958F93EF93FF93E0911D
:1001A0008200F09183008CB18083FF91EF918F9159
:1001B00018958F93809184008CB98F9118951F9218
:1001C0000F920FB60F9211242F933F934F935F938B
:1001D0006F937F938F939F93AF93BF93EF93FF930F
:1001E000E0918500F09186000995FF91EF91BF9114
:1001F000AF919F918F917F916F915F914F913F91BF
:100200002F910F900FBE0F901F9018958FB7806899
:100210008FBF08958FB78F778FBF08959BB721E069
:1002200030E001C0220F8A95EAF7922B9BBF089518
:10023000623069F150F4611113C0863049F485B71A
:100240008E7F85BF85B78D7F12C0633079F10895A9
:10025000853071F485B78B7F85BF85B7877F07C0F1
:10026000863039F485B78E7F85BF85B7826085BFBC
:100270000895853031F485B78B7F85BF85B7886059
:10028000F6CF8730A9F784B78F7B84BF0895863077
:1002900019F485B78160E8CF853019F485B784609B
:1002A000ECCF873029F784B78064EFCF863019F41C
:1002B00085B78160C6CF8530D9F685B78460CCCF4D
:1002C0009AB721E030E001C0220F8A95EAF7922B1D
:1002D0009ABF0895CF93DF93C82FD62F0E940601AF
:1002E0008C2F0E9460018BB721E030E00C2E01C002
:1002F000220F0A94EAF7822B8BBF6D2F8C2FDF9190
:10030000CF910C941801863029F0873069F0853040
:1003100031F0089560938B0070938C000895609382
:10032000890070938A000895609387007093880015
:1003300008951F920F920FB60F9211242F933F939F
:100340004F935F936F937F938F939F93AF93BF93DD
:10035000EF93FF93E0918B00F0918C00309709F0C0
:100360000995FF91EF91BF91AF919F918F917F91EF
:100370006F915F914F913F912F910F900FBE0F9012
:100380001F9018951F920F920FB60F9211242F9362
:100390003F934F935F936F937F938F939F93AF930D
:1003A000BF93EF93FF93E0918900F0918A0030971B
:1003B00009F00995FF91EF91BF91AF919F918F91B6
:1003C0007F916F915F914F913F912F910F900FBE51
:1003D0000F901F9018951F920F920FB60F92112435
:1003E0002F933F934F935F936F937F938F939F933D
:1003F000AF93BF93EF93FF93E0918700F091880054
:10040000309709F00995FF91EF91BF91AF919F91BE
:100410008F917F916F915F914F913F912F910F90AD
:100420000FBE0F901F901895FC019A0141155105C0
:1004300021F04130510579F00895208181E090E06C
:10044000AC0102C0440F551F6A95E2F7BA016095EE
:10045000622360830895808101C0220F6A95EAF7C4
:10046000822B80830895FC016115710531F06130A4
:10047000710521F48FEF80830895108208950C9404
:100480001402FC01808190E002C0959587956A95E1
:10049000E2F781700895FC0160830895379A613016
:1004A000A9F4359A4230B1F43E9A3F988130D9F49C
:1004B0003D9A80B78F7D80BF80B78F7B80BF80B72C
:1004C0008F7780BF3098319A329A08956111EACFC0
:1004D0003598E8CF413011F43E98E7CF4111E6CF8F
:1004E0003E9A3F9AE3CF8111E4CF3D98E2CF38980E
:1004F00039983A983B983C9897B18F71907E892BA8
:1005000087B935990EC0369A349BFECF349A3D9BFD
:100510000AC084B195B126E0969587952A95E1F7B2
:10052000089586B1F4CF84B195B1089596B79064DB
:1005300096BF92E090B908980998811511F08695B8
:1005400082B986B7846086BF089586B7806186BF0A
:1005500086B7806886BF089596B7906496BF8695E3
:1005600082B986B7846086BF0895FC01808121E04E
:1005700030E001C0220F6A95EAF7822B808308954C
:10058000FC018FEF80830895FC019A01411551050C
:1005900059F041305105A9F4808101C0220F6A95BC
:1005A000EAF7822B80830895208181E090E0AC01FE
:1005B00002C0440F551F6A95E2F7BA0160956223A5
:1005C00060830895FC016115710531F0613071059A
:1005D00021F48FEF808308951082089540E050E069
:1005E00060E070E087E390E00E94140240E050E099
:1005F00061E070E087E390E00E94140240E050E088
:1006000062E070E087E390E00E94140240E050E076
:1006100063E070E087E390E00E94140241E050E064
:1006200064E070E087E390E00E94140241E050E053
:1006300065E070E087E390E00E94140241E050E042
:1006400066E070E087E390E00E94140241E050E031
:1006500067E070E087E390E00E94140241E050E020
:1006600060E070E088E390E00E943F0241E050E0EB
:1006700061E070E088E390E00E943F0241E050E0DA
:1006800062E070E088E390E00E943F0241E050E0C9
:1006900063E070E088E390E00C943F02CF92DF9239
:1006A000EF92FF920F931F93CF93DF9324E7E22EF5
:1006B00020E0F22E00E010E0C4E7D0E0699170E0A5
:1006C00041E050E088E390E00E943F0280E0C837BC
:1006D000D807A1F7F70161917F0170E040E050E099
:1006E00088E390E00E943F0290E7C92E90E0D92E67
:1006F000C0E0D0E0F60161916F0170E086E390E028
:100700000E944102811120C0CE0180599F4F7C017F
:10071000F701608170E086E390E00E94410281155C
:10072000B9F3CC0FDD1FCC0FDD1FC05ADF4FFE0128
:10073000E00FF11F8081DF91CF911F910F91FF900A
:10074000EF90DF90CF9008952196C430D10591F6B7
:100750000F5F1F4F0430110509F0AECF8FEFEBCFC5
:10076000FC018FEF808308959B01FA01EF2B21F0AC
:100770004130510539F0089528583F4FF901608103
:100780000C944B0228583F4FF90160816095F8CFD7
:100790009B01FA01EF2B21F04130510541F0089502
:1007A00028583F4FF90160816F5F0C944B02285825
:1007B0003F4FF90120816EEF621BF7CFCF93C82F17
:1007C00040E050E060E070E08BE390E00E943F0288
:1007D00040E050E061E070E08BE390E00E943F0277
:1007E0006C2F85E390E00E944B0241E050E062E014
:1007F00070E08BE390E00E943F028FE99FE0019759
:10080000F1F700C0000040E050E062E070E08BE3F0
:1008100090E0CF910C943F0241E050E062E070E044
:100820008AE390E00E94140241E050E060E070E052
:100830008AE390E00E94140241E050E061E070E041
:100840008AE390E00E94140261E070E084E390E0AB
:100850000E9433022FEB8AED90E0215080409040BF
:10086000E1F700C000008CE30E94DE038FEC97E00C
:100870000197F1F700C000008CE00E94DE038FECCE
:1008800097E00197F1F700C0000081E00E94DE03CD
:100890008FE99FE00197F1F700C0000086E00E9419
:1008A000DE038FEC97E00197F1F700C00000089598
:1008B000CF93C82F41E050E060E070E08BE390E020
:1008C0000E943F0240E050E061E070E08BE390E086
:1008D0000E943F026C2F85E390E00E944B028FEC58
:1008E00097E00197F1F700C0000041E050E062E0BE
:1008F00070E08BE390E00E943F028FEC97E001975D
:10090000F1F700C0000040E050E062E070E08BE3EF
:1009100090E0CF910C943F020F931F93CF938C01E3
:10092000C0E0F801EC0FF11D8081811104C0CF916E
:100930001F910F9108950E945804CF5FF2CF81E07C
:100940000C94DE030F931F93CF93DF938B0187707B
:10095000885F880F880F880F0E94DE03E801085F18
:100960001F4F89910E945804C017D107D1F780E822
:10097000DF91CF911F910F910C94DE038111605C88
:10098000862F80680C94DE0381E090E00895A1E258
:100990001A2EAA1BBB1BFD010DC0AA1FBB1FEE1FF9
:1009A000FF1FA217B307E407F50720F0A21BB30B44
:1009B000E40BF50B661F771F881F991F1A9469F7C0
:1009C00060957095809590959B01AC01BD01CF011C
:0609D0000895F894FFCF2A
:1009D6003738392F3435362A3132332D63303D2BB3
:1009E6000001020304050607FC60DAF266B6BEE003
:0209F600FEF60B
:00000001FF
