:100000000C942A000C9447000C9447000C94470071
:100010000C9447000C9447000C9447000C94470044
:100020000C9447000C9447000C9447000C94470034
:100030000C9447000C9447000C9447000C94470024
:100040000C9447000C9447000C9447000C94470014
:100050000C94470011241FBECFE5D8E0DEBFCDBF12
:1000600010E0A0E6B0E0EAE3F5E002C005900D92F2
:10007000AA36B107D9F720E0AAE6B0E001C01D9288
:10008000A037B207E1F70E9498020C949B020C94EF
:1000900000008FB780688FBF08958FB78F778FBFAD
:1000A00008959BB721E030E001C0220F8A95EAF75E
:1000B000922B9BBF0895623069F150F4611113C017
:1000C000863049F485B78E7F85BF85B78D7F12C096
:1000D000633079F10895853071F485B78B7F85BFE2
:1000E00085B7877F07C0863039F485B78E7F85BF97
:1000F00085B7826085BF0895853031F485B78B7FE1
:1001000085BF85B78860F6CF8730A9F784B78F7B26
:1001100084BF0895863019F485B78160E8CF8530B3
:1001200019F485B78460ECCF873029F784B78064F1
:10013000EFCF863019F485B78160C6CF8530D9F608
:1001400085B78460CCCF9AB721E030E001C0220FA0
:100150008A95EAF7922B9ABF0895CF93DF93C82F21
:10016000D62F0E9449008C2F0E94A3008BB721E05C
:1001700030E00C2E01C0220F0A94EAF7822B8BBFCD
:100180006D2F8C2FDF91CF910C945B00FC019A01B5
:100190004115510521F04130510579F00895208134
:1001A00081E090E0AC0102C0440F551F6A95E2F770
:1001B000BA016095622360830895808101C0220F97
:1001C0006A95EAF7822B80830895FC016115710519
:1001D00031F06130710521F48FEF80830895108232
:1001E00008950C94C600FC01808190E002C09595B2
:1001F00087956A95E2F7817099270895FC016083DD
:100200000895FC01808121E030E001C0220F6A9551
:10021000EAF7822B80830895FC018FEF8083089595
:10022000FC019A014115510559F041305105A9F4DD
:10023000808101C0220F6A95EAF7822B808308959E
:10024000208181E090E0AC0102C0440F551F6A9507
:10025000E2F7BA016095622360830895FC0161159D
:10026000710531F06130710521F48FEF80830895BD
:100270001082089540E050E060E070E08AE390E092
:100280000E94C60040E050E061E070E08AE390E048
:100290000E94C60040E050E062E070E08AE390E037
:1002A0000E94C60040E050E063E070E08AE390E026
:1002B0000E94C60041E050E064E070E08AE390E014
:1002C0000E94C60041E050E065E070E08AE390E003
:1002D0000E94C60041E050E066E070E08AE390E0F2
:1002E0000E94C60041E050E067E070E08AE390E0E1
:1002F0000E94C60041E050E060E070E08BE390E0D7
:100300000E94F10041E050E061E070E08BE390E09A
:100310000E94F10041E050E062E070E08BE390E089
:100320000E94F10041E050E063E070E08BE390E078
:100330000C94F100FC018FEF808308959B01FA017A
:10034000EF2B21F04130510539F00895205A3F4FED
:10035000F90160810C94FE00205A3F4FF901608141
:100360006095F8CF9B01FA01EF2B21F04130510548
:1003700041F00895205A3F4FF90160816F5F0C945E
:10038000FE00205A3F4FF90120816EEF621BF7CF2C
:10039000CF93C82F40E050E060E070E088E390E049
:1003A0000E94F10040E050E061E070E088E390E0FE
:1003B0000E94F1006C2F85E390E00E94FE0041E076
:1003C00050E062E070E088E390E00E94F1008FE985
:1003D0009FE00197F1F700C0000040E050E062E0CC
:1003E00070E088E390E0CF910C94F10041E050E0A0
:1003F00062E070E087E390E00E94C60041E050E0D8
:1004000060E070E087E390E00E94C60041E050E0C9
:1004100061E070E087E390E00E94C60061E070E078
:1004200084E390E00E94E5002FEB8AED90E02150FC
:1004300080409040E1F700C000008CE30E94C801BA
:100440008FEC97E00197F1F700C000008CE00E946C
:10045000C8018FEC97E00197F1F700C0000081E040
:100460000E94C8018FE99FE00197F1F700C00000EA
:1004700086E00E94C8018FEC97E00197F1F700C079
:1004800000000895CF93C82F41E050E060E070E095
:1004900088E390E00E94F10040E050E061E070E00D
:1004A00088E390E00E94F1006C2F85E390E00E94C9
:1004B000FE008FEC97E00197F1F700C0000041E0EB
:1004C00050E062E070E088E390E00E94F1008FEC81
:1004D00097E00197F1F700C0000040E050E062E0D3
:1004E00070E088E390E0CF910C94F1000F931F939C
:1004F000CF93DF938B018770885F880F880F880FF9
:100500000E94C801E801085F1F4F89910E944202C2
:10051000C017D107D1F780E8DF91CF911F910F91DC
:100520000C94C8018111605C862F80680C94C8010E
:0A05300080E090E00895F894FFCFFA
:0A053A00FC60DAF266B6BEE0FEF6E1
:00000001FF
