:100000000C942A000C943F000C943F000C943F0089
:100010000C943F000C943F000C943F000C943F0064
:100020000C943F000C943F000C943F000C943F0054
:100030000C943F000C943F000C943F000C943F0044
:100040000C943F000C943F000C943F000C943F0034
:100050000C943F0011241FBECFE5D8E0DEBFCDBF1A
:1000600010E0A0E6B0E0EEE5F5E002C005900D92EC
:10007000AA36B107D9F70E9480020C94AD020C9405
:100080000000FC019A014115510561F04130510514
:1000900091F4808101C0220F6A95EAF72095282308
:1000A00020830895808121E030E001C0220F6A950D
:1000B000EAF7822B80830895FC016115710531F008
:1000C0006130710521F48FEF8083089510820895C7
:1000D000FC019A014115510521F04130510579F09B
:1000E0000895208181E090E0AC0102C0440F551FCB
:1000F0006A95E2F7BA016095622360830895808172
:1001000001C0220F6A95EAF7822B80830895FC01D3
:10011000808190E002C0959587956A95E2F781709D
:1001200099270895FC0160830895FC01808121E0F6
:1001300030E001C0220F6A95EAF7822B8083089590
:10014000FC018FEF80830895FC019A014115510550
:1001500059F041305105A9F4808101C0220F6A9500
:10016000EAF7822B80830895208181E090E0AC0142
:1001700002C0440F551F6A95E2F7BA0160956223E9
:1001800060830895FC016115710531F061307105DE
:1001900021F48FEF808308951082089540E050E0AD
:1001A00060E070E08AE390E00E94410040E050E0AF
:1001B00061E070E08AE390E00E94410040E050E09E
:1001C00062E070E08AE390E00E94410040E050E08D
:1001D00063E070E08AE390E00E94410041E050E07B
:1001E00064E070E08AE390E00E94410041E050E06A
:1001F00065E070E08AE390E00E94410041E050E059
:1002000066E070E08AE390E00E94410041E050E047
:1002100067E070E08AE390E00E94410041E050E036
:1002200060E070E08BE390E00E94680041E050E005
:1002300061E070E08BE390E00E94680041E050E0F4
:1002400062E070E08BE390E00E94680041E050E0E3
:1002500063E070E08BE390E00C946800FC018FEFAA
:10026000808308959B01FA01EF2B21F04130510565
:1002700039F00895205A3F4FF90160810C949200A3
:10028000205A3F4FF90160816095F8CF9B01FA0138
:10029000EF2B21F04130510541F00895205A3F4F96
:1002A000F90160816F5F0C949200205A3F4FF90171
:1002B00020816EEF621BF7CFCF93C82F40E050E054
:1002C00060E070E088E390E00E94680040E050E069
:1002D00061E070E088E390E00E9468006C2F85E3A5
:1002E00090E00E9492008FE697E10197F1F700C03D
:1002F000000041E050E062E070E088E390E00E949E
:1003000068008FE99FE00197F1F700C0000040E02E
:1003100050E062E070E088E390E0CF910C946800D8
:1003200041E050E062E070E087E390E00E9441002D
:1003300041E050E060E070E087E390E00E9441001F
:1003400041E050E061E070E087E390E00E9441000E
:1003500061E070E084E390E00E945C008CE30E9426
:100360005C018FE697E10197F1F700C000008FE094
:100370000E945C018FE697E10197F1F700C0000051
:1003800081E00C945C0160E070E08AE390E00E9400
:10039000950061E070E08AE390E00E94950062E0E1
:1003A00070E08AE390E00E94950087E390E00E946D
:1003B0002E0184E390E00C942E01EF92FF920F93B4
:1003C0001F93CF93DF9340E050E062E070E08BE357
:1003D00090E00E94A40041E050E060E070E08BE318
:1003E00090E00E94A400C4E1D0E02AE0E22EF12CCB
:1003F000CE01B7010E9485028C0140E050E088E305
:1004000090E00E94320140E050E0B80185E390E0C6
:100410000E9432012FEF80E792E02150804090400F
:10042000E1F700C00000219719F740E050E060E0DC
:1004300070E08BE390E00E94A40041E050E061E0B6
:1004400070E08BE390E00E94A400C4E1D0E09AE069
:10045000E92EF12CCE01B7010E9485028C0140E00B
:1004600050E088E390E00E94320140E050E0B801A3
:1004700085E390E00E9432012FEF80E792E0215067
:1004800080409040E1F700C00000219719F740E05C
:1004900050E061E070E08BE390E00E94A40041E056
:1004A00050E062E070E08BE390E00E94A400C4E1C1
:1004B000D0E08AE0E82EF12CCE01B7010E9485023F
:1004C0008C0140E050E088E390E00E94320140E07F
:1004D00050E0B80185E390E00E9432012FEF80E701
:1004E00092E0215080409040E1F700C00000219749
:1004F00019F7DF91CF911F910F91FF90EF90089521
:100500000E94C3010E94DD01FDCF97FB072E16F468
:10051000009407D077FD09D00E94990207FC05D00E
:100520003EF4909581959F4F0895709561957F4F0A
:100530000895AA1BBB1B51E107C0AA1FBB1FA6172A
:10054000B70710F0A61BB70B881F991F5A95A9F77C
:0E05500080959095BC01CD010895F894FFCFE1
:0A055E00FC60DAF266B6BEE0FEF6BD
:00000001FF
