:100000000C942A000C9434000C9434000C943400AA
:100010000C9434000C9434000C9434000C94340090
:100020000C9434000C9434000C9434000C94340080
:100030000C9434000C9434000C9434000C94340070
:100040000C9434000C9434000C9434000C94340060
:100050000C94340011241FBECFE5D8E0DEBFCDBF25
:100060000E945D020C9462020C940000FC019A0153
:100070004115510561F04130510591F4808101C075
:10008000220F6A95EAF7209528232083089580811E
:1000900021E030E001C0220F6A95EAF7822B8083CD
:1000A0000895FC016115710531F06130710521F48D
:1000B0008FEF8083089510820895FC019A01411505
:1000C000510521F04130510579F00895208181E0FA
:1000D00090E0AC0102C0440F551F6A95E2F7BA01E7
:1000E0006095622360830895808101C0220F6A9524
:1000F000EAF7822B80830895FC01808190E002C0A2
:10010000959587956A95E2F7817099270895FC0186
:1001100060830895FC01808121E030E001C0220F5E
:100120006A95EAF7822B80830895FC018FEF808324
:100130000895FC019A014115510559F041305105CE
:10014000A9F4808101C0220F6A95EAF7822B80838F
:100150000895208181E090E0AC0102C0440F551F5A
:100160006A95E2F7BA016095622360830895FC0105
:100170006115710531F06130710521F48FEF8083D5
:1001800008951082089540E050E060E070E08AE356
:1001900090E00E94360040E050E061E070E08AE3C9
:1001A00090E00E94360040E050E062E070E08AE3B8
:1001B00090E00E94360040E050E063E070E08AE3A7
:1001C00090E00E94360041E050E064E070E08AE395
:1001D00090E00E94360041E050E065E070E08AE384
:1001E00090E00E94360041E050E066E070E08AE373
:1001F00090E00E94360041E050E067E070E08AE362
:1002000090E00E94360041E050E060E070E08BE357
:1002100090E00E945D0041E050E061E070E08BE31F
:1002200090E00E945D0041E050E062E070E08BE30E
:1002300090E00E945D0041E050E063E070E08BE3FD
:1002400090E00C945D00CF93C82F40E050E060E058
:1002500070E085E290E00E945D0040E050E061E0E7
:1002600070E085E290E00E945D006C2F85E290E0F6
:100270000E9487008FE697E10197F1F700C0000028
:1002800041E050E062E070E085E290E00E945D00B5
:100290008FE99FE00197F1F700C0000040E050E0D7
:1002A00062E070E085E290E0CF910C945D0041E067
:1002B00050E062E070E084E290E00E94360041E0AD
:1002C00050E060E070E084E290E00E94360041E09F
:1002D00050E061E070E084E290E00E94360061E06E
:1002E00070E084E290E00E9451008CE30E942301C0
:1002F0008FE697E10197F1F700C000008FE00E94C0
:1003000023018FE697E10197F1F700C0000081E03B
:100310000C94230160E070E08AE390E00E948A0080
:1003200061E070E08AE390E00E948A0062E070E0A1
:100330008AE390E00C948A0040E050E062E070E0D4
:100340008BE390E00E94990041E050E060E070E0B3
:100350008BE390E00E9499002FEF80E792E021501C
:1003600080409040E1F700C000002FEF80E792E06E
:10037000215080409040E1F700C000002FEF80E75F
:1003800092E0215080409040E1F700C000002FEF44
:1003900080E792E0215080409040E1F700C00000EB
:1003A0002FEF80E792E0215080409040E1F700C0BD
:1003B00000002FEF80E792E0215080409040E1F76D
:1003C00000C0000040E050E060E070E08BE390E0AF
:1003D0000E94990041E050E061E070E08BE390E022
:1003E0000E9499002FEF80E792E0215080409040DA
:1003F000E1F700C000002FEF80E792E0215080403D
:100400009040E1F700C000002FEF80E792E021501C
:1004100080409040E1F700C000002FEF80E792E0BD
:10042000215080409040E1F700C000002FEF80E7AE
:1004300092E0215080409040E1F700C0000040E091
:1004400050E061E070E08BE390E00E94990041E0B1
:1004500050E062E070E08BE390E00E9499002FEFA3
:1004600080E792E0215080409040E1F700C000001A
:100470002FEF80E792E0215080409040E1F700C0EC
:1004800000002FEF80E792E0215080409040E1F79C
:1004900000C000002FEF80E792E0215080409040A4
:1004A000E1F700C000002FEF80E792E0215080408C
:1004B0009040E1F700C0000008950E948A010E9468
:0804C0009C01FDCFF894FFCF71
:00000001FF
