:100000000C942A000C9447000C9447000C94470071
:100010000C9447000C9447000C9447000C94470044
:100020000C9447000C9447000C9447000C94470034
:100030000C9447000C9447000C9447000C94470024
:100040000C9447000C9447000C9447000C94470014
:100050000C94470011241FBECFE5D8E0DEBFCDBF12
:1000600010E0A0E6B0E0E8E1F6E002C005900D92F5
:10007000A237B107D9F720E0A2E7B0E001C01D9296
:10008000AD37B207E1F70E94DD020C940A030C942D
:100090000000FC019A014115510521F04130510544
:1000A00079F00895208181E090E0AC0102C0440F16
:1000B000551F6A95E2F7BA0160956223608308953F
:1000C000808101C0220F6A95EAF7822B8083089510
:1000D000FC016115710531F06130710521F48FEF7C
:1000E00080830895108208950C944900FC0180815A
:1000F00090E002C0959587956A95E2F781709927FF
:100100000895FC0160830895FC01808121E030E0C6
:1001100001C0220F6A95EAF7822B80830895FC01C3
:100120008FEF80830895FC019A014115510559F024
:1001300041305105A9F4808101C0220F6A95EAF788
:10014000822B80830895208181E090E0AC0102C081
:10015000440F551F6A95E2F7BA01609562236083E8
:100160000895FC016115710531F06130710521F4CC
:100170008FEF808308951082089540E050E060E0A2
:1001800070E08AE390E00E94490040E050E061E0C6
:1001900070E08AE390E00E94490040E050E062E0B5
:1001A00070E08AE390E00E94490040E050E063E0A4
:1001B00070E08AE390E00E94490041E050E064E092
:1001C00070E08AE390E00E94490041E050E065E081
:1001D00070E08AE390E00E94490041E050E066E070
:1001E00070E08AE390E00E94490041E050E067E05F
:1001F00070E08AE390E00E94490041E050E060E056
:1002000070E08BE390E00E94740041E050E061E018
:1002100070E08BE390E00E94740041E050E062E007
:1002200070E08BE390E00E94740041E050E063E0F6
:1002300070E08BE390E00C947400FC018FEF8083FE
:1002400008959B01FA01EF2B21F04130510539F05F
:100250000895205A3F4FF90160810C948100205A83
:100260003F4FF90160816095F8CF9B01FA01EF2BB8
:1002700021F04130510541F00895205A3F4FF901D6
:1002800060816F5F0C948100205A3F4FF9012081FB
:100290006EEF621BF7CFCF93C82F40E050E060E0D5
:1002A00070E088E390E00E94740040E050E061E07C
:1002B00070E088E390E00E9474006C2F85E390E08A
:1002C0000E94810041E050E062E070E088E390E04D
:1002D0000E9474008FE99FE00197F1F700C00000D1
:1002E00040E050E062E070E088E390E0CF910C9451
:1002F000740041E050E062E070E087E390E00E942B
:10030000490041E050E060E070E087E390E00E9447
:10031000490041E050E061E070E087E390E00E9436
:10032000490061E070E084E390E00E9468002FEBF8
:100330008AED90E0215080409040E1F700C000003D
:100340008CE30E944B018FEC97E00197F1F700C01E
:1003500000008CE00E944B018FEC97E00197F1F7D1
:1003600000C0000081E00E944B018FE99FE00197EF
:10037000F1F700C0000086E00E944B018FEC97E08F
:100380000197F1F700C000000895CF93C82F41E016
:1003900050E060E070E088E390E00E94740040E08C
:1003A00050E061E070E088E390E00E9474006C2F00
:1003B00085E390E00E9481008FEC97E00197F1F7D0
:1003C00000C0000041E050E062E070E088E390E0AF
:1003D0000E9474008FEC97E00197F1F700C00000D5
:1003E00040E050E062E070E088E390E0CF910C9450
:1003F00074000F931F93CF93DF938B018770885FF7
:10040000880F880F880F0E944B01E801085F1F4F7B
:1004100089910E94C501C017D107D1F780E8DF910B
:10042000CF911F910F910C944B018111605C862F2D
:1004300080680C944B010E94150280E00C94C50169
:100440000E94150280E20C94C501CF93DF93C82F60
:10045000D62FE0917200F0E0EE0FFF1FED58FF4F36
:10046000618180810E942002E0917200F0E0EE0F35
:10047000FF1FED58FF4FC083D1836D2F8C2F0E943B
:100480001B028091720090E0019665E070E00E948E
:10049000E202809372008FE493EC0197F1F700C0C1
:1004A0000000DF91CF910895CF93DF93CDB7DEB7F2
:1004B00028970FB6F894DEBF0FBECDBF0E9479011A
:1004C00040E050E064E070E081E390E00E94490089
:1004D00040E050E065E070E081E390E00E94490078
:1004E00040E050E066E070E081E390E00E94490067
:1004F00040E050E067E070E081E390E00E94490056
:1005000041E050E064E070E082E390E00E9474001B
:1005100041E050E065E070E082E390E00E9474000A
:1005200041E050E066E070E082E390E00E947400F9
:1005300041E050E067E070E082E390E00E947400E8
:1005400088E0EAE6F0E0DE01119601900D928A95CE
:10055000E1F7BE016F5F7F4F80E00E94F901E3E7A2
:10056000F0E01082118212821382148215821682A8
:1005700017821086118628960FB6F894DEBF0FBE3C
:10058000CDBFDF91CF910895CF93C0E06C2F80E075
:100590000E942502CF5FC031C9F76FE081E00E9461
:1005A0002502CEE06C2F81E00E942502C150D0F7D9
:1005B00060E080E0CF910C9425020E9454020E94DA
:1005C000C402FDCF97FB072E16F4009407D077FDE9
:1005D00009D00E94F60207FC05D03EF49095819563
:1005E0009F4F0895709561957F4F0895AA1BBB1B7F
:1005F00051E107C0AA1FBB1FA617B70710F0A61B23
:10060000B70B881F991F5A95A9F780959095BC0143
:08061000CD010895F894FFCF1D
:10061800FC60DAF266B6BEE0FEF6000000040000F8
:020628000000D0
:00000001FF
