:100000000C942A000C943D010C9466010C948F0111
:100010000C9447000C9447000C9447000C94470044
:100020000C9447000C9447000C9447000C94470034
:100030000C9447000C9470000C947D000C94830089
:100040000C9447000C9447000C9447000C94470014
:100050000C94470011241FBECFE5D8E0DEBFCDBF12
:1000600010E0A0E6B0E0EAEBF5E102C005900D92E9
:10007000A03DB107D9F720E0A0EDB0E001C01D928E
:10008000AB3DB207E1F70E9429060C94DB0A0C9401
:10009000000010BC83E380BD88E18AB986E880BD9A
:1000A0000895FC015F9BFECF8CB1808308955D9B1A
:1000B000FECF8CB908958CB95E9BFECF0895579AF8
:1000C0009093D1008093D0000895569A559AFC01E0
:1000D00080818093D2007093D4006093D300089500
:1000E0008F93EF93FF93E091D000F091D1008CB10A
:1000F0008083FF91EF918F9118958F938091D2001B
:100100008CB98F9118951F920F920FB60F921124F0
:100110002F933F934F935F936F937F938F939F930F
:10012000AF93BF93EF93FF93E091D300F091D4008E
:100130000995FF91EF91BF91AF919F918F917F9121
:100140006F915F914F913F912F910F900FBE0F9044
:100150001F9018958FB780688FBF08958FB78F77DE
:100160008FBF08959BB721E030E001C0220F8A9530
:10017000EAF7922B9BBF0895623069F150F4611148
:1001800013C0863049F485B78E7F85BF85B78D7FD4
:1001900012C0633079F10895853071F485B78B7F93
:1001A00085BF85B7877F07C0863039F485B78E7FD6
:1001B00085BF85B7826085BF0895853031F485B7E6
:1001C0008B7F85BF85B78860F6CF8730A9F784B766
:1001D0008F7B84BF0895863019F485B78160E8CF9E
:1001E000853019F485B78460ECCF873029F784B760
:1001F0008064EFCF863019F485B78160C6CF853033
:10020000D9F685B78460CCCF9AB721E030E001C041
:10021000220F8A95EAF7922B9ABF0895CF93DF9326
:10022000C82FD62F0E94AA008C2F0E9404018BB7E2
:1002300021E030E00C2E01C0220F0A94EAF7822B55
:100240008BBF6D2F8C2FDF91CF910C94BC0086302B
:1002500029F0873069F0853031F008956093D90036
:100260007093DA0008956093D7007093D8000895D2
:100270006093D5007093D60008951F920F920FB629
:100280000F9211242F933F934F935F936F937F931C
:100290008F939F93AF93BF93EF93FF93E091D90018
:1002A000F091DA00309709F00995FF91EF91BF9135
:1002B000AF919F918F917F916F915F914F913F91FE
:1002C0002F910F900FBE0F901F9018951F920F92B5
:1002D0000FB60F9211242F933F934F935F936F9319
:1002E0007F938F939F93AF93BF93EF93FF93E0918F
:1002F000D700F091D800309709F00995FF91EF9160
:10030000BF91AF919F918F917F916F915F914F912D
:100310003F912F910F900FBE0F901F9018951F9235
:100320000F920FB60F9211242F933F934F935F9329
:100330006F937F938F939F93AF93BF93EF93FF93AD
:10034000E091D500F091D600309709F00995FF9122
:10035000EF91BF91AF919F918F917F916F915F913D
:100360004F913F912F910F900FBE0F901F901895B6
:10037000FC019A014115510521F04130510579F0F8
:100380000895208181E090E0AC0102C0440F551F28
:100390006A95E2F7BA0160956223608308958081CF
:1003A00001C0220F6A95EAF7822B80830895FC0131
:1003B0006115710531F06130710521F48FEF808393
:1003C0000895108208950C94B801FC01808190E09A
:1003D00002C0959587956A95E2F781700895FC01B2
:1003E0006083089580E487B986E886B9089597B157
:1003F0008F71907E892B87B9369A3699FECF84B15A
:1004000095B1089596B7906496BF92E090B9089818
:100410000998811511F0869582B986B7846086BFE8
:10042000089596B7906496BF869582B986B7846022
:1004300086BF089586B7806286BF86B7806886BF0C
:1004400006B607FCFDCF81B1817090E0089596B7A4
:10045000906296BF96B7906896BF06B607FCFDCF30
:1004600081B1282F217030E0C901880F991F0895AC
:1004700086B7806186BF86B7806886BF08958695F7
:1004800083B9189886B78F7D86BF86B7806886BF88
:1004900006B607FEFDCF089903C080E090E00895FE
:1004A00083E090E0089583B986B7806886BF06B67A
:1004B00007FEFDCF089903C080E090E0089587E033
:1004C00090E00895869583B9189A86B78F7D86BF88
:1004D00086B7806886BF06B607FEFDCF089903C0C1
:1004E00080E090E0089585E090E00895FC0186B7F3
:1004F000806886BF06B607FEFDCF80E090E0089BCF
:1005000002C089E090E023B12083089586B7806817
:1005100086BF06B607FEFDCF089903C080E090E0D5
:1005200008958BE090E00895FC0186B7806886BF4F
:1005300006B607FEFDCF80E090E0089B02C08CE08D
:1005400090E023B12083089586B7806886BF06B601
:1005500007FEFDCF089903C080E090E008958DE08C
:1005600090E0089583B986B7806886BF06B607FE17
:10057000FDCF089903C080E090E008958EE090E000
:100580000895FC01808121E030E001C0220F6A95CE
:10059000EAF7822B80830895FC018FEF8083089512
:1005A000FC019A014115510559F041305105A9F45A
:1005B000808101C0220F6A95EAF7822B808308951B
:1005C000208181E090E0AC0102C0440F551F6A9584
:1005D000E2F7BA016095622360830895FC0161151A
:1005E000710531F06130710521F48FEF808308953A
:1005F0001082089540E050E060E070E087E390E012
:100600000E94B80140E050E061E070E087E390E0D4
:100610000E94B80140E050E062E070E087E390E0C3
:100620000E94B80140E050E063E070E087E390E0B2
:100630000E94B80141E050E064E070E087E390E0A0
:100640000E94B80141E050E065E070E087E390E08F
:100650000E94B80141E050E066E070E087E390E07E
:100660000E94B80141E050E067E070E087E390E06D
:100670000E94B80141E050E060E070E088E390E063
:100680000E94E30141E050E061E070E088E390E027
:100690000E94E30141E050E062E070E088E390E016
:1006A0000E94E30141E050E063E070E088E390E005
:1006B0000C94E301CF92DF92EF92FF920F931F937E
:1006C000CF93DF9324E7E22E20E0F22E00E010E04B
:1006D000C4E7D0E0699170E041E050E088E390E049
:1006E0000E94E30180E0C837D807A1F7F7016191C4
:1006F0007F0170E040E050E088E390E00E94E30179
:1007000090E7C92E90E0D92EC0E0D0E0F6016191CB
:100710006F0170E086E390E00E94E501811120C046
:10072000CE0180599F4F7C01F701608170E086E324
:1007300090E00E94E5018115B9F3CC0FDD1FCC0FCD
:10074000DD1FC05ADF4FFE01E00FF11F8081DF91F6
:10075000CF911F910F91FF90EF90DF90CF90089570
:100760002196C430D10591F60F5F1F4F043011055B
:1007700009F0AECF8FEFEBCFFC018FEF80830895B0
:100780009B01FA01EF2B21F04130510539F008951A
:1007900028583F4FF90160810C94EF0128583F4FD2
:1007A000F90160816095F8CF9B01FA01EF2B21F0F0
:1007B0004130510541F0089528583F4FF9016081BB
:1007C0006F5F0C94EF0128583F4FF90120816EEFC5
:1007D000621BF7CFCF93C82F40E050E060E070E09D
:1007E0008BE390E00E94E30140E050E061E070E0C4
:1007F0008BE390E00E94E3016C2F85E390E00E9480
:10080000EF0141E050E062E070E08BE390E00E9495
:10081000E3018FE99FE00197F1F700C0000040E09D
:1008200050E062E070E08BE390E0CF910C94E30144
:1008300041E050E062E070E08AE390E00E94B8019D
:1008400041E050E060E070E08AE390E00E94B8018F
:1008500041E050E061E070E08AE390E00E94B8017E
:1008600061E070E084E390E00E94D7012FEB8AED15
:1008700090E0215080409040E1F700C000008CE300
:100880000E94EA038FEC97E00197F1F700C00000A7
:100890008CE00E94EA038FEC97E00197F1F700C02B
:1008A000000081E00E94EA038FE99FE00197F1F7E1
:1008B00000C0000086E00E94EA038FEC97E00197F9
:1008C000F1F700C000000895CF93C82F41E050E039
:1008D00060E070E08BE390E00E94E30140E050E0D4
:1008E00061E070E08BE390E00E94E3016C2F85E310
:1008F00090E00E94EF018FEC97E00197F1F700C0C4
:10090000000041E050E062E070E08BE390E00E9484
:10091000E3018FEC97E00197F1F700C0000040E0A1
:1009200050E062E070E08BE390E0CF910C94E30143
:100930000F931F93CF938C01C0E0F801EC0FF11DD2
:100940008081811104C0CF911F910F9108950E9461
:100950006404CF5FF2CF81E00C94EA030F931F93FE
:10096000CF93DF938B018770885F880F880F880F84
:100970000E94EA03E801085F1F4F89910E94640406
:10098000C017D107D1F780E8DF91CF911F910F9168
:100990000C94EA038111605C862F80680C94EA0352
:1009A00041E050E062E070E087E390E00E94B8012F
:1009B00041E050E063E070E087E390E00E94B8011E
:1009C00041E050E064E070E087E390E00E94B8010D
:1009D00040E050E060E070E087E390E00E94B80102
:1009E00041E050E062E070E081E390E00E94B801F5
:1009F00041E050E063E070E081E390E00E94B801E4
:100A000041E050E064E070E081E390E00E94B801D2
:100A100041E050E062E070E082E390E00E94E30198
:100A200040E050E063E070E082E390E00E94E30188
:100A300041E050E064E070E082E390E00E94E30176
:100A40000E94090642E060E080E00C94F2012F92DF
:100A50003F924F925F926F927F928F929F92AF924E
:100A6000BF92CF92DF92EF92FF920F931F93CF939B
:100A7000DF93CDB7DEB7E8970FB6F894DEBF0FBEB1
:100A8000CDBF82E890E00E941D0600E010E0CE019C
:100A900001964C0141E050E000FD02C040E050E012
:100AA00062E070E088E390E00E94E30141E050E002
:100AB00001FD02C040E050E063E070E088E390E0B8
:100AC0000E94E30141E050E002FD02C040E050E03E
:100AD00064E070E088E390E00E94E3019FE72AE190
:100AE00086E0915020408040E1F700C0000080E0A7
:100AF0000E94F701BC0180E090E00E94F60620E031
:100B000030E040EA50E469A37AA38BA39CA369A1D7
:100B10007AA18BA19CA10E94840720E030E040E8EC
:100B20005AE36DA37EA38FA398A76DA17EA18FA189
:100B300098A50E9484073B015C0169A77AA68BA750
:100B4000BCA669A57AA58BA59CA50E94C0066B01D1
:100B5000072E000C880B990B0E94F8061B012C0134
:100B6000A20191016DA67EA6AFA6B8AA6DA57EA52D
:100B70008FA598A90E94530620E030E048EC52E48B
:100B800069AB7AAB8BAB9CAB69A97AA98BA99CA901
:100B90000E9484076DAB7EAB8FAB98AF6DA97EA929
:100BA0008FA998AD0E94C0067F936F93DF92CF927A
:100BB0001F930F938EE990E09F938F939F928F9254
:100BC0000E94F107C4010E941D060F5F1F4F0FB660
:100BD000F894DEBF0FBECDBF0830110509F05ACF23
:100BE000E8960FB6F894DEBF0FBECDBFDF91CF9170
:100BF0001F910F91FF90EF90DF90CF90BF90AF903B
:100C00009F908F907F906F905F904F903F902F902C
:100C1000089583E389B980E880BD88E18AB986E8D0
:100C200080BD08955D9BFECF8CB95E9BFECF5E9A22
:100C300008955F9BFECF8CB10895CF93DF93EC01B5
:100C40008991811103C0DF91CF9108950E9412060E
:100C5000F7CF0E94D00460E070E086E390E00E944D
:100C6000E501813019F40E942705F5CF83EB90E070
:100C70000E941D0641E050E064E070E088E390E0EF
:100C80000E94E30140E050E063E070E088E390E020
:100C90000E94E30140E050E062E070E088E390E011
:100CA0000E94E301D8CF5058BB27AA270E946B06A9
:100CB0000C944A070E943C0738F00E94430720F03A
:100CC00039F49F3F19F426F40C9439070EF4E0959B
:100CD000E7FB0C943307E92F0E945B0758F3BA1720
:100CE000620773078407950720F079F4A6F50C9442
:100CF0007D070EF4E0950B2EBA2FA02D0B01B90144
:100D000090010C01CA01A0011124FF27591B99F081
:100D1000593F50F4503E68F11A16F040A22F232F8D
:100D2000342F4427585FF3CF469537952795A795DD
:100D3000F0405395C9F77EF41F16BA0B620B730B84
:100D4000840BBAF09150A1F0FF0FBB1F661F771FF5
:100D5000881FC2F70EC0BA0F621F731F841F48F4AA
:100D6000879577956795B795F7959E3F08F0B0CF33
:100D70009395880F08F09927EE0F9795879508951A
:100D80000E94C7066894B1110C947E0708950E94D2
:100D9000630788F09F5798F0B92F9927B751B0F0A3
:100DA000E1F0660F771F881F991F1AF0BA95C9F7EF
:100DB00014C0B13091F00E947D07B1E008950C9409
:100DC0007D07672F782F8827B85F39F0B93FCCF3BC
:100DD000869577956795B395D9F73EF4909580956C
:100DE000709561957F4F8F4F9F4F0895E89409C08C
:100DF00097FB3EF490958095709561957F4F8F4F4E
:100E00009F4F9923A9F0F92F96E9BB279395F69563
:100E1000879577956795B795F111F8CFFAF4BB0FE1
:100E200011F460FF1BC06F5F7F4F8F4F9F4F16C045
:100E3000882311F096E911C0772321F09EE8872FCF
:100E4000762F05C0662371F096E8862F70E060E08B
:100E50002AF09A95660F771F881FDAF7880F969504
:100E6000879597F9089597F99F6780E870E060E0AB
:100E700008959FEF80EC089500240A941616170633
:100E800018060906089500240A941216130614067B
:100E900005060895092E0394000C11F4882352F0DE
:100EA000BB0F40F4BF2B11F460FF04C06F5F7F4F96
:100EB0008F4F9F4F089557FD9058440F551F59F07D
:100EC0005F3F71F04795880F97FB991F61F09F3F37
:100ED00079F087950895121613061406551FF2CF60
:100EE0004695F1DF08C0161617061806991FF1CFB0
:100EF00086957105610508940895E894BB276627D7
:100F00007727CB0197F908950E9497070C944A0719
:100F10000E943C0738F00E94430720F0952311F00F
:100F20000C9433070C94390711240C947E070E940B
:100F30005B0770F3959FC1F3950F50E0551F629FBB
:100F4000F001729FBB27F00DB11D639FAA27F00D22
:100F5000B11DAA1F649F6627B00DA11D661F829F49
:100F60002227B00DA11D621F739FB00DA11D621F2E
:100F7000839FA00D611D221F749F3327A00D611D4B
:100F8000231F849F600D211D822F762F6A2F11242D
:100F90009F5750409AF0F1F088234AF0EE0FFF1F60
:100FA000BB1F661F771F881F91505040A9F79E3FB7
:100FB000510580F00C9433070C947E075F3FE4F3F7
:100FC000983ED4F3869577956795B795F795E7950D
:100FD0009F5FC1F7FE2B880F911D9695879597F916
:100FE0000895AEE0B0E0E7EFF7E00C94B20A0D89A7
:100FF0001E8986E08C831A8309838FEF9FE79E8387
:101000008D83AE01475E5F4F6F89788DCE0101966B
:101010000E9414082F813885020F131FF8011082D7
:101020002E96E4E00C94CE0AABE0B0E0EAE1F8E002
:101030000C94A50A6C017B018A01FC0117821682BF
:10104000838181FFDAC19AE0492EF6012381F701FD
:1010500023FD859123FF81917F01811509F41FC133
:10106000853239F423FD959123FF91917F019532CB
:1010700029F4B60190E00E94160AE7CF30E0612C17
:10108000512C712CF0E27F1640F59B32D9F058F4C8
:101090009032D1F09332F1F09E3299F576FCFFC098
:1010A000689476F806C09D3291F09033C1F468944C
:1010B00070F8F70123FD959123FF91917F01911124
:1010C000E1CF29C0689471F8689472F8F2CF6894FF
:1010D00073F8EFCF689474F8ECCF77FC1CC080ED08
:1010E000890F8A30C8F676FE05C0649C800D1124F5
:1010F000682EDFCF549C800D1124582E689475F80B
:10110000D8CF9C3619F4689477F8D3CF9C3409F47F
:101110004BC0983671F2892F8F7D8554833008F447
:1011200045C0933609F466C0933709F469C0933516
:1011300009F475C0943619F0993609F09FC0F8018A
:1011400077FE95C061917191819191918F01272DC9
:101150002F76722E97FF09C09095809570956195B6
:101160007F4F8F4F9F4F689477F82AE030E0AE01B1
:101170004F5F5F4F5A010E94460A8A19A82E76FED9
:10118000C5C0872D8E7FA61408F0BFC074FE12C1A3
:1011900072FC06C1F72DFE7E7F2EB62C872D867839
:1011A000811509F4C0C001C131E083CF3115F9F0D8
:1011B000085F1F4F8FE3898388248394912CAE01AD
:1011C0004F5F5F4F5A01E89477F873FC03C08514B2
:1011D0009104B0F181149104D1F5511409F435CF83
:1011E000B60180E290E00E94160A5A94F6CF0C5F96
:1011F0001F4FE0CFF801808189830E5F1F4FDCCF46
:10120000F801A190B1908F01662D70E076FC02C0CC
:101210006FEF7FEFC5010E940B0A4C01D4CFF8019C
:10122000A190B1908F01662D70E076FC02C06FEF47
:101230007FEFC5010E94000A4C01689477F8C5CF82
:10124000B60180E290E00E94160A5A94C0CFF501E0
:1012500077FC859177FE81915F01B60190E00E9455
:10126000160A51105A94F1E08F1A9108B3CF619188
:101270007191072E000C880B990B68CF372CE894DE
:1012800034F82AE030E0953739F1572D597F352E63
:10129000903799F058F49835A9F09F36D9F0F601B7
:1012A000868197812B96E1E10C94C10A9837B9F7B2
:1012B00074FC05C020E130E00FC0689434F86894F5
:1012C00032F8F8CF74FE03C0872D8660382E20E1F7
:1012D00032E002C028E030E0F80137FE11C0619131
:1012E0007191819191918F01FE0131965F01AF0162
:1012F0000E94460A8A19A82E732CE89477F83FCFEB
:101300006191719180E090E0EECF782EBA2C74FE5E
:1013100045CFFE01EA0DF11D8081803309F043C005
:10132000272D297E722E73FC0EC070FE4FC06A2CD2
:10133000B51418F4650C6B18B52C852D8B195B143E
:1013400008F480E0B80EB51408F042C05B1874FED3
:1013500041C0B60180E390E00E94160A72FE09C007
:1013600088E590E071FC02C088E790E0B6010E9439
:10137000160AA614D8F1AA94B12C4FEFA41AB40AF5
:10138000CE0101963C01A80EB91EF50182915F01C4
:10139000B60190E00E94160A6A147B04B1F71DCFD3
:1013A000B62C782EB6CF72FC02C0B394BCCFB394E7
:1013B000B394B9CFB62C782EF1CEB60180E290E08E
:1013C0000E94160A33943514C0F3B7CF3B2CFBCFE1
:1013D000512CBDCF872D8678811559F280E271FCA2
:1013E0008BE277FC8DE2B60190E0C1CFB60180E3DD
:1013F00090E00E94160A6A94BCCF8FEF9FEF52CF05
:10140000FC010590615070400110D8F780959095CF
:101410008E0F9F1F0895FC016150704001900110D4
:10142000D8F7809590958E0F9F1F08950F931F9367
:10143000CF93DF93182F092FEB018B8181FD09C01A
:101440001FEF0FEF812F902FDF91CF911F910F9101
:10145000089582FF14C02E813F818C819D812817C1
:1014600039073CF4E881F981CF010196998388839B
:1014700010838E819F8101969F838E83E3CFE885C1
:10148000F985812F0995892BA1F3DACFFA01AA27D3
:10149000283051F1203181F1E8946F936E7F6E5FB7
:1014A0007F4F8F4F9F4FAF4FB1E03ED0B4E03CD065
:1014B000670F781F891F9A1FA11D680F791F8A1F48
:1014C000911DA11D6A0F711D811D911DA11D20D0AF
:1014D00009F468943F912AE0269F11243019305D69
:1014E0003193DEF6CF010895462F4770405D41935A
:1014F000B3E00FD0C9F7F6CF462F4F70405D4A33A7
:1015000018F0495D31FD4052419302D0A9F7EACF6E
:10151000B4E0A6959795879577956795BA95C9F79D
:1015200000976105710508959B01AC010A2E069490
:101530005795479537952795BA95C9F7620F731F49
:10154000841F951FA01D08952F923F924F925F9286
:101550006F927F928F929F92AF92BF92CF92DF92C3
:10156000EF92FF920F931F93CF93DF93CDB7DEB728
:10157000CA1BDB0B0FB6F894DEBF0FBECDBF0994BC
:101580002A88398848885F846E847D848C849B8413
:10159000AA84B984C884DF80EE80FD800C811B8121
:1015A000AA81B981CE0FD11D0FB6F894DEBF0FBE50
:0A15B000CDBFED010895F894FFCFC0
:1015BA003738392F3435362A3132332D63303D2BC3
:1015CA000001020304050607FC60DAF266B6BEE013
:1015DA00FEF6537461727465642072656164696EA3
:1015EA00672049432076616C7565730D0A0049745A
:1015FA0065722025643A2025642E253032642056EF
:10160A000D0A0050726573732074686520627574E0
:10161A00746F6E20746F2073746172740A0D000007
:00000001FF
