:100000000C942A000C9499010C94C2010C94EB01FD
:100010000C9447000C9447000C9447000C94470044
:100020000C9447000C9447000C9447000C94470034
:100030000C9447000C94CC000C94D9000C94DF0075
:100040000C9447000C9447000C9447000C94470014
:100050000C94470011241FBECFE5D8E0DEBFCDBF12
:1000600010E0A0E6B0E0E0EFFDE002C005900D92E8
:10007000AC3AB107D9F720E0ACEAB0E001C01D927C
:10008000AC3CB207E1F70E9488060C94F6060C948B
:100090000000CF92DF92EF92FF920F93CF936B010C
:1000A0007C01C42F80B58F7780BD211509F43FC036
:1000B000213009F046C0A701960193E0220F331FBB
:1000C000441F551F9A95D1F760E072E18AE790E0EE
:1000D0000E94C0062150310929B930BD80B5806821
:1000E00080BD80B58F7B80BDC13071F1C23091F190
:1000F000C11106C080B58F7E80BD80B58F7D80BD6B
:10010000013059F1023019F480B5886080BD80B5A6
:10011000826080BD80B5846080BD5298539A549AA5
:10012000CF910F91FF90EF90DF90CF900895A701AE
:10013000960184E0220F331F441F551F8A95D1F783
:10014000C3CF20E030E0C8CF80B58F7E80BD80B5C2
:100150008062D5CF80B58061F9CF80B5877FD6CF5B
:10016000FC015F9BFECF8CB1808308955D9BFECF29
:100170008CB95E9A0895579A9093AD008093AC0025
:100180000895569A559AFC0180818093AE00709331
:10019000B0006093AF0008958F93EF93FF93E091C9
:1001A000AC00F091AD008CB18083FF91EF918F9105
:1001B00018958F938091AE008CB98F9118951F92EE
:1001C0000F920FB60F9211242F933F934F935F938B
:1001D0006F937F938F939F93AF93BF93EF93FF930F
:1001E000E091AF00F091B0000995FF91EF91BF91C0
:1001F000AF919F918F917F916F915F914F913F91BF
:100200002F910F900FBE0F901F9018958FB7806899
:100210008FBF08958FB78F778FBF08959BB721E069
:1002200030E001C0220F8A95EAF7922B9BBF089518
:10023000623069F150F4611113C0863049F485B71A
:100240008E7F85BF85B78D7F12C0633079F10895A9
:10025000853071F485B78B7F85BF85B7877F07C0F1
:10026000863039F485B78E7F85BF85B7826085BFBC
:100270000895853031F485B78B7F85BF85B7886059
:10028000F6CF8730A9F784B78F7B84BF0895863077
:1002900019F485B78160E8CF853019F485B784609B
:1002A000ECCF873029F784B78064EFCF863019F41C
:1002B00085B78160C6CF8530D9F685B78460CCCF4D
:1002C0009AB721E030E001C0220F8A95EAF7922B1D
:1002D0009ABF0895CF93DF93C82FD62F0E940601AF
:1002E0008C2F0E9460018BB721E030E00C2E01C002
:1002F000220F0A94EAF7822B8BBF6D2F8C2FDF9190
:10030000CF910C941801863029F0873069F0853040
:1003100031F008956093B5007093B600089560932E
:10032000B3007093B40008956093B1007093B2006D
:1003300008951F920F920FB60F9211242F933F939F
:100340004F935F936F937F938F939F93AF93BF93DD
:10035000EF93FF93E091B500F091B600309709F06C
:100360000995FF91EF91BF91AF919F918F917F91EF
:100370006F915F914F913F912F910F900FBE0F9012
:100380001F9018951F920F920FB60F9211242F9362
:100390003F934F935F936F937F938F939F93AF930D
:1003A000BF93EF93FF93E091B300F091B4003097C7
:1003B00009F00995FF91EF91BF91AF919F918F91B6
:1003C0007F916F915F914F913F912F910F900FBE51
:1003D0000F901F9018951F920F920FB60F92112435
:1003E0002F933F934F935F936F937F938F939F933D
:1003F000AF93BF93EF93FF93E091B100F091B20000
:10040000309709F00995FF91EF91BF91AF919F91BE
:100410008F917F916F915F914F913F912F910F90AD
:100420000FBE0F901F901895FC019A0141155105C0
:1004300021F04130510579F00895208181E090E06C
:10044000AC0102C0440F551F6A95E2F7BA016095EE
:10045000622360830895808101C0220F6A95EAF7C4
:10046000822B80830895FC016115710531F06130A4
:10047000710521F48FEF80830895108208950C9404
:100480001402FC01808190E002C0959587956A95E1
:10049000E2F781700895FC0160830895379A613016
:1004A000A9F4359A4230B1F43E9A3F988130D9F49C
:1004B0003D9A80B78F7D80BF80B78F7B80BF80B72C
:1004C0008F7780BF3098319A329A08956111EACFC0
:1004D0003598E8CF413011F43E98E7CF4111E6CF8F
:1004E0003E9A3F9AE3CF8111E4CF3D98E2CF38980E
:1004F00039983A983B983C9897B18F71907E892BA8
:1005000087B935990EC0369A349BFECF349A3D9BFD
:100510000AC084B195B126E0969587952A95E1F7B2
:10052000089586B1F4CF84B195B10895FC0180811E
:1005300021E030E001C0220F6A95EAF7822B808328
:100540000895FC018FEF80830895FC019A01411505
:10055000510559F041305105A9F4808101C0220FA5
:100560006A95EAF7822B80830895208181E090E0EC
:10057000AC0102C0440F551F6A95E2F7BA016095BD
:10058000622360830895FC016115710531F06130CB
:10059000710521F48FEF808308951082089540E063
:1005A00050E060E070E087E390E00E94140240E0D9
:1005B00050E061E070E087E390E00E94140240E0C8
:1005C00050E062E070E087E390E00E94140240E0B7
:1005D00050E063E070E087E390E00E94140241E0A5
:1005E00050E064E070E087E390E00E94140241E094
:1005F00050E065E070E087E390E00E94140241E083
:1006000050E066E070E087E390E00E94140241E071
:1006100050E067E070E087E390E00E94140241E060
:1006200050E060E070E088E390E00E943F0241E02B
:1006300050E061E070E088E390E00E943F0241E01A
:1006400050E062E070E088E390E00E943F0241E009
:1006500050E063E070E088E390E00C943F02CF92BA
:10066000DF92EF92FF920F931F93CF93DF9324E7D4
:10067000E22E20E0F22E00E010E0C4E7D0E0699125
:1006800070E041E050E088E390E00E943F0280E0AB
:10069000C837D807A1F7F70161917F0170E040E00A
:1006A00050E088E390E00E943F0290E7C92E90E07E
:1006B000D92EC0E0D0E0F60161916F0170E086E3D1
:1006C00090E00E944102811120C0CE0180599F4FCD
:1006D0007C01F701608170E086E390E00E944102B6
:1006E0008115B9F3CC0FDD1FCC0FDD1FC05ADF4FD2
:1006F000FE01E00FF11F8081DF91CF911F910F91DB
:10070000FF90EF90DF90CF9008952196C430D105EF
:1007100091F60F5F1F4F0430110509F0AECF8FEF38
:10072000EBCFFC018FEF808308959B01FA01EF2B43
:1007300021F04130510539F0089528583F4FF90113
:1007400060810C944B0228583F4FF90160816095FD
:10075000F8CF9B01FA01EF2B21F04130510541F018
:10076000089528583F4FF90160816F5F0C944B0248
:1007700028583F4FF90120816EEF621BF7CFCF93CE
:10078000C82F40E050E060E070E088E390E00E9415
:100790003F0240E050E061E070E088E390E00E94BA
:1007A0003F026C2F85E390E00E944B0241E050E055
:1007B00062E070E088E390E00E943F028FE99FE0F2
:1007C0000197F1F700C0000040E050E062E070E007
:1007D00088E390E0CF910C943F0241E050E062E06A
:1007E00070E087E390E00E94140241E050E060E096
:1007F00070E087E390E00E94140241E050E061E085
:1008000070E087E390E00E94140261E070E084E30E
:1008100090E00E9433022FEB8AED90E0215080405F
:100820009040E1F700C000008CE30E94BF038FEC12
:1008300097E00197F1F700C000008CE00E94BF0331
:100840008FEC97E00197F1F700C0000081E00E9473
:10085000BF038FE99FE00197F1F700C0000086E039
:100860000E94BF038FEC97E00197F1F700C00000F2
:100870000895CF93C82F41E050E060E070E088E336
:1008800090E00E943F0240E050E061E070E088E3C9
:1008900090E00E943F026C2F85E390E00E944B02A3
:1008A0008FEC97E00197F1F700C0000041E050E0C5
:1008B00062E070E088E390E00E943F028FEC97E0F6
:1008C0000197F1F700C0000040E050E062E070E006
:1008D00088E390E0CF910C943F020F931F93CF9346
:1008E0008C01C0E0F801EC0FF11D8081811104C082
:1008F000CF911F910F9108950E943904CF5FF2CFDD
:1009000081E00C94BF030F931F93CF93DF938B0170
:100910008770885F880F880F880F0E94BF03E801E7
:10092000085F1F4F89910E943904C017D107D1F782
:1009300080E8DF91CF911F910F910C94BF0381113B
:10094000605C862F80680C94BF030E949F0480E047
:100950000C9439040E949F0480E20C943904CF93D4
:10096000DF93C82FD62FE091B700F0E0EE0FFF1F06
:10097000E854FF4F618180810E94AA04E091B70092
:10098000F0E0EE0FFF1FE854FF4FC083D1836D2FBF
:100990008C2F0E94A5048091B70090E001966AE038
:1009A00070E00E94AC068093B7008FE493EC01974F
:1009B000F1F700C00000DF91CF910895CF93DF934E
:1009C000CDB7DEB728970FB6F894DEBF0FBECDBF08
:1009D0000E94ED0340E050E064E070E081E390E0CD
:1009E0000E94140240E050E065E070E081E390E096
:1009F0000E94140240E050E066E070E081E390E085
:100A00000E94140240E050E067E070E081E390E073
:100A10000E94140241E050E064E070E082E390E064
:100A20000E943F0241E050E065E070E082E390E028
:100A30000E943F0241E050E066E070E082E390E017
:100A40000E943F0241E050E067E070E082E390E006
:100A50000E943F0288E0E2E8F0E0DE01119601909A
:100A60000D928A95E1F7BE016F5F7F4F80E00E9493
:100A70008304E8EBF0E010821182329680E0EC3CD7
:100A8000F807C9F728960FB6F894DEBF0FBECDBFA2
:100A9000DF91CF910895CF93C0E06C2F80E00E944A
:100AA000AF04CF5FC031C9F76FE081E00E94AF04AF
:100AB000CEE06C2F81E00E94AF04C150D0F760E01F
:100AC00080E0CF910C94AF044F925F926F927F922F
:100AD0008F929F92AF92BF92CF92DF92EF92FF924E
:100AE0000F931F93CF93DF932C013B015A014901D0
:100AF0006801E70160E080E00E94AF0464E070E01C
:100B000080E390E00E94410282E990E00E946D043F
:100B100067E070E080E390E00E94410211E0F301A1
:100B20001083F5011082F401108268816F5F688381
:100B3000F60180810E94AF0464E070E080E390E001
:100B40000E94410266E070E080E390E00E94410272
:100B5000F2011083F5011082F40110826881615066
:100B60006883F60180810E94AF0464E070E080E356
:100B700090E00E94410265E070E080E390E00E9416
:100B80004102F4011083F3011082F2011082F60198
:100B900080818F5F808368810E94AF0466E070E08F
:100BA00080E390E00E94410264E070E080E390E026
:100BB0000E944102F5011083F3011082F2011082BC
:100BC000F60180818150808368810E94AF0466E0D5
:100BD00070E080E390E0DF91CF911F910F91FF9043
:100BE000EF90DF90CF90BF90AF909F908F907F90CD
:100BF0006F905F904F900C944102EF92FF920F9391
:100C00001F93CF93DF93EC018B017A0167E070E0D3
:100C100080E390E00E94410281113BC0888199816C
:100C20000297B9F119821882E881F981E257FF4FE2
:100C3000D8018C919081890F8C93E881F981E657D6
:100C4000FF4F6081F7018081680F6083603120F47D
:100C50008C91823008F44DC00E94800486E990E0B7
:100C60000E946D04FFEF24E38CE0F15020408040AF
:100C7000E1F700C00000D8011C92F7011082198230
:100C80001882DF91CF911F910F91FF90EF900C94FC
:100C9000800465E070E080E390E00E9441028111F1
:100CA00009C088819981039729F081E090E09983B8
:100CB0008883BACF66E070E080E390E00E94410252
:100CC000811107C088819981892B19F082E090E019
:100CD000EECF64E070E080E390E00E944102811179
:100CE000A3CF88819981019709F49ECF83E090E09A
:100CF000DECF0E94AF048FE99FE00197F1F700C0BB
:100D00000000DF91CF911F910F91FF90EF90089518
:100D100000D000D0CDB7DEB70E94DE041A8219825F
:100D20001C821B8280EA90E00E946D042FEF84E316
:100D30009CE0215080409040E1F700C000000E94FC
:100D40008004AE014D5F5F4FBE016C5F7F4FCE01EF
:100D500001960E94FD05F5CF97FB072E16F400942F
:100D600007D077FD09D00E94E20607FC05D03EF4CB
:100D7000909581959F4F0895709561957F4F089547
:100D8000A1E21A2EAA1BBB1BFD010DC0AA1FBB1F8F
:100D9000EE1FFF1FA217B307E407F50720F0A21B01
:100DA000B30BE40BF50B661F771F881F991F1A946E
:100DB00069F760957095809590959B01AC01BD0198
:100DC000CF010895AA1BBB1B51E107C0AA1FBB1F7F
:100DD000A617B70710F0A61BB70B881F991F5A95C7
:100DE000A9F780959095BC01CD010895F894FFCFA7
:100DF0003738392F3435362A3132332D63303D2B95
:100E00000001020304050607FC60DAF266B6BEE0E4
:100E1000FEF600000004000000000100FF000001D9
:100E200000FF4137410047616D65204F76657200D4
:0C0E3000536E616B652047616D6500002A
:00000001FF
