:100000000C942A000C9499010C94C2010C94EB01FD
:100010000C9447000C9447000C9447000C94470044
:100020000C9447000C9447000C9447000C94470034
:100030000C9447000C94CC000C94D9000C94DF0075
:100040000C9447000C9447000C9447000C94470014
:100050000C94470011241FBECFE5D8E0DEBFCDBF12
:1000600010E0A0E6B0E0E6EFF5E102C005900D92E9
:10007000A63BB107D9F720E0A6EBB0E001C01D9286
:10008000A13CB207E1F70E940E060C94F90A0C9409
:100090000000CF92DF92EF92FF920F93CF936B010C
:1000A0007C01C42F80B58F7780BD211509F43FC036
:1000B000213009F046C0A701960193E0220F331FBB
:1000C000441F551F9A95D1F760E072E18AE790E0EE
:1000D0000E9427062150310929B930BD80B58068BA
:1000E00080BD80B58F7B80BDC13071F1C23091F190
:1000F000C11106C080B58F7E80BD80B58F7D80BD6B
:10010000013059F1023019F480B5886080BD80B5A6
:10011000826080BD80B5846080BD5298539A549AA5
:10012000CF910F91FF90EF90DF90CF900895A701AE
:10013000960184E0220F331F441F551F8A95D1F783
:10014000C3CF20E030E0C8CF80B58F7E80BD80B5C2
:100150008062D5CF80B58061F9CF80B5877FD6CF5B
:10016000FC015F9BFECF8CB1808308955D9BFECF29
:100170008CB95E9A0895579A9093B7008093B60011
:100180000895569A559AFC0180818093B800709327
:10019000BA006093B90008958F93EF93FF93E091B5
:1001A000B600F091B7008CB18083FF91EF918F91F1
:1001B00018958F938091B8008CB98F9118951F92E4
:1001C0000F920FB60F9211242F933F934F935F938B
:1001D0006F937F938F939F93AF93BF93EF93FF930F
:1001E000E091B900F091BA000995FF91EF91BF91AC
:1001F000AF919F918F917F916F915F914F913F91BF
:100200002F910F900FBE0F901F9018958FB7806899
:100210008FBF08958FB78F778FBF08959BB721E069
:1002200030E001C0220F8A95EAF7922B9BBF089518
:10023000623069F150F4611113C0863049F485B71A
:100240008E7F85BF85B78D7F12C0633079F10895A9
:10025000853071F485B78B7F85BF85B7877F07C0F1
:10026000863039F485B78E7F85BF85B7826085BFBC
:100270000895853031F485B78B7F85BF85B7886059
:10028000F6CF8730A9F784B78F7B84BF0895863077
:1002900019F485B78160E8CF853019F485B784609B
:1002A000ECCF873029F784B78064EFCF863019F41C
:1002B00085B78160C6CF8530D9F685B78460CCCF4D
:1002C0009AB721E030E001C0220F8A95EAF7922B1D
:1002D0009ABF0895CF93DF93C82FD62F0E940601AF
:1002E0008C2F0E9460018BB721E030E00C2E01C002
:1002F000220F0A94EAF7822B8BBF6D2F8C2FDF9190
:10030000CF910C941801863029F0873069F0853040
:1003100031F008956093BF007093C000089560931A
:10032000BD007093BE0008956093BB007093BC0045
:1003300008951F920F920FB60F9211242F933F939F
:100340004F935F936F937F938F939F93AF93BF93DD
:10035000EF93FF93E091BF00F091C000309709F058
:100360000995FF91EF91BF91AF919F918F917F91EF
:100370006F915F914F913F912F910F900FBE0F9012
:100380001F9018951F920F920FB60F9211242F9362
:100390003F934F935F936F937F938F939F93AF930D
:1003A000BF93EF93FF93E091BD00F091BE003097B3
:1003B00009F00995FF91EF91BF91AF919F918F91B6
:1003C0007F916F915F914F913F912F910F900FBE51
:1003D0000F901F9018951F920F920FB60F92112435
:1003E0002F933F934F935F936F937F938F939F933D
:1003F000AF93BF93EF93FF93E091BB00F091BC00EC
:10040000309709F00995FF91EF91BF91AF919F91BE
:100410008F917F916F915F914F913F912F910F90AD
:100420000FBE0F901F901895FC019A0141155105C0
:1004300021F04130510579F00895208181E090E06C
:10044000AC0102C0440F551F6A95E2F7BA016095EE
:10045000622360830895808101C0220F6A95EAF7C4
:10046000822B80830895FC016115710531F06130A4
:10047000710521F48FEF80830895108208950C9404
:100480001402FC01808190E002C0959587956A95E1
:10049000E2F781700895FC0160830895379A613016
:1004A000A9F4359A4230B1F43E9A3F988130D9F49C
:1004B0003D9A80B78F7D80BF80B78F7B80BF80B72C
:1004C0008F7780BF3098319A329A08956111EACFC0
:1004D0003598E8CF413011F43E98E7CF4111E6CF8F
:1004E0003E9A3F9AE3CF8111E4CF3D98E2CF38980E
:1004F00039983A983B983C9897B18F71907E892BA8
:1005000087B935990EC0369A349BFECF349A3D9BFD
:100510000AC084B195B126E0969587952A95E1F7B2
:10052000089586B1F4CF84B195B10895FC0180811E
:1005300021E030E001C0220F6A95EAF7822B808328
:100540000895FC018FEF80830895FC019A01411505
:10055000510559F041305105A9F4808101C0220FA5
:100560006A95EAF7822B80830895208181E090E0EC
:10057000AC0102C0440F551F6A95E2F7BA016095BD
:10058000622360830895FC016115710531F06130CB
:10059000710521F48FEF808308951082089540E063
:1005A00050E060E070E087E390E00E94140240E0D9
:1005B00050E061E070E087E390E00E94140240E0C8
:1005C00050E062E070E087E390E00E94140240E0B7
:1005D00050E063E070E087E390E00E94140241E0A5
:1005E00050E064E070E087E390E00E94140241E094
:1005F00050E065E070E087E390E00E94140241E083
:1006000050E066E070E087E390E00E94140241E071
:1006100050E067E070E087E390E00E94140241E060
:1006200050E060E070E088E390E00E943F0241E02B
:1006300050E061E070E088E390E00E943F0241E01A
:1006400050E062E070E088E390E00E943F0241E009
:1006500050E063E070E088E390E00C943F02CF92BA
:10066000DF92EF92FF920F931F93CF93DF9324E7D4
:10067000E22E20E0F22E00E010E0C4E7D0E0699125
:1006800070E041E050E088E390E00E943F0280E0AB
:10069000C837D807A1F7F70161917F0170E040E00A
:1006A00050E088E390E00E943F0290E7C92E90E07E
:1006B000D92EC0E0D0E0F60161916F0170E086E3D1
:1006C00090E00E944102811120C0CE0180599F4FCD
:1006D0007C01F701608170E086E390E00E944102B6
:1006E0008115B9F3CC0FDD1FCC0FDD1FC05ADF4FD2
:1006F000FE01E00FF11F8081DF91CF911F910F91DB
:10070000FF90EF90DF90CF9008952196C430D105EF
:1007100091F60F5F1F4F0430110509F0AECF8FEF38
:10072000EBCFFC018FEF808308959B01FA01EF2B43
:1007300021F04130510539F0089528583F4FF90113
:1007400060810C944B0228583F4FF90160816095FD
:10075000F8CF9B01FA01EF2B21F04130510541F018
:10076000089528583F4FF90160816F5F0C944B0248
:1007700028583F4FF90120816EEF621BF7CFCF93CE
:10078000C82F40E050E060E070E082E390E00E941B
:100790003F0240E050E061E070E082E390E00E94C0
:1007A0003F026C2F85E390E00E944B0241E050E055
:1007B00062E070E082E390E00E943F028FE99FE0F8
:1007C0000197F1F700C0000040E050E062E070E007
:1007D00082E390E0CF910C943F0241E050E062E070
:1007E00070E081E390E00E94140241E050E060E09C
:1007F00070E081E390E00E94140241E050E061E08B
:1008000070E081E390E00E94140261E070E084E314
:1008100090E00E9433022FEB8AED90E0215080405F
:100820009040E1F700C000008CE30E94BF038FEC12
:1008300097E00197F1F700C000008CE00E94BF0331
:100840008FEC97E00197F1F700C0000081E00E9473
:10085000BF038FE99FE00197F1F700C0000086E039
:100860000E94BF038FEC97E00197F1F700C00000F2
:100870000895CF93C82F41E050E060E070E082E33C
:1008800090E00E943F0240E050E061E070E082E3CF
:1008900090E00E943F026C2F85E390E00E944B02A3
:1008A0008FEC97E00197F1F700C0000041E050E0C5
:1008B00062E070E082E390E00E943F028FEC97E0FC
:1008C0000197F1F700C0000040E050E062E070E006
:1008D00082E390E0CF910C943F020F931F93CF934C
:1008E0008C01C0E0F801EC0FF11D8081811104C082
:1008F000CF911F910F9108950E943904CF5FF2CFDD
:1009000081E00C94BF030F931F93CF93DF938B0170
:100910008770885F880F880F880F0E94BF03E801E7
:10092000085F1F4F89910E943904C017D107D1F782
:1009300080E8DF91CF911F910F910C94BF0381113B
:10094000605C862F80680C94BF0342E060E081E029
:100950000E944E020E94ED0341E050E060E070E032
:1009600087E390E00E94140241E050E061E070E013
:1009700087E390E00E94140241E050E062E070E002
:1009800087E390E00C9414024F925F926F927F92F3
:100990008F929F92AF92BF92CF92DF92EF92FF928F
:1009A0000F931F93CF93DF93CDB7DEB7C054D10918
:1009B0000FB6F894DEBF0FBECDBF80E00E94770275
:1009C00025E0289FB001299F700D112480E090E060
:1009D0000E94140720E030E040E85AE369AB7AABAC
:1009E0008BAB9CAB69A97AA98BA99CA90E94A20791
:1009F0004B015C01C501B4010E94DE062B0185E0BC
:100A000090E03C01641875081F921F927F926F92CC
:100A100082E890E09F938F935E0181E2A80EB11C63
:100A2000BF92AF920E940F0881E00E9477029C0162
:100A3000A8E8B3E10E9449062AE096958795779544
:100A400067952A95D1F70E9414076B017C01C701B5
:100A5000B6010E94DE068B011F921F92CB016AE055
:100A600070E00E9413067F936F938CE890E09F9351
:100A70008F936E0191E1C90ED11CDF92CF920E943B
:100A80000F0882E00E9477029C01A8E8B3E10E946F
:100A900049063AE096958795779567953A95D1F707
:100AA0000E94140720E030E040E251E46DAB7EABE1
:100AB0008FAB98AF6DA97EA98FA998AD0E946C06E7
:100AC00027E234EE45E85EE369AF7AAF8BAF9CAFC7
:100AD00069AD7AAD8BAD9CAD0E94A2076DAF7EAFC4
:100AE0008FAF21969FAF219721966CAD7DAD8EADD6
:100AF0009FAD21970E94DE067B011F921F927F937C
:100B00006F9386E990E09F938F93CE0101964C01FD
:100B10009F938F930E940F080FB6F894DEBF0FBE0D
:100B2000CDBF5A2C4B2C5601640141E050E092E0BD
:100B30006916710414F040E050E060E070E088E372
:100B400090E00E943F020E3F81E0180734F440E03D
:100B500050E097E4E916F10414F041E050E061E060
:100B600070E088E390E00E943F0241E050E00633ED
:100B7000114014F440E050E062E070E088E390E05F
:100B80000E943F0241E050E097E4E916F10414F4BA
:100B900040E050E063E070E088E390E00E943F02B4
:100BA00080EA90E00E946D04852D942D0E946D04D2
:100BB00060E082E00E949F0488EA90E00E946D0459
:100BC000C5010E946D0468E081E00E949F048EEAE6
:100BD00090E00E946D04C6010E946D048FE19EE4C6
:100BE0000197F1F700C000000E948004C05CDF4F55
:100BF0000FB6F894DEBF0FBECDBFDF91CF911F912E
:100C00000F91FF90EF90DF90CF90BF90AF909F90AB
:100C10008F907F906F905F904F9008950E94A504F1
:100C20000E94C404FDCF97FB072E16F4009407D052
:100C300077FD09D00E94580607FC05D03EF4909538
:100C400081959F4F0895709561957F4F0895A1E21A
:100C50001A2EAA1BBB1BFD010DC0AA1FBB1FEE1F36
:100C6000FF1FA217B307E407F50720F0A21BB30B81
:100C7000E40BF50B661F771F881F991F1A9469F7FD
:100C800060957095809590959B01AC01BD01CF0159
:100C90000895A29FB001B39FC001A39F700D811D55
:100CA0001124911DB29F700D811D1124911D089575
:100CB000AA1BBB1B51E107C0AA1FBB1FA617B70782
:100CC00010F0A61BB70B881F991F5A95A9F780959E
:100CD0009095BC01CD0108950E9480060C94680790
:100CE0000E94610758F00E945A0740F029F45F3FC4
:100CF00029F00C94510751110C949C070C94570740
:100D00000E94790768F39923B1F3552391F3951B5A
:100D1000550BBB27AA2762177307840738F09F5F1C
:100D20005F4F220F331F441FAA1FA9F335D00E2E89
:100D30003AF0E0E832D091505040E695001CCAF7F6
:100D40002BD0FE2F29D0660F771F881FBB1F2617B9
:100D500037074807AB07B0E809F0BB0B802DBF0190
:100D6000FF2793585F4F3AF09E3F510578F00C945F
:100D700051070C949C075F3FE4F3983ED4F38695AB
:100D800077956795B795F7959F5FC9F7880F911D80
:100D90009695879597F90895E1E0660F771F881F6C
:100DA000BB1F621773078407BA0720F0621B730B1F
:100DB000840BBA0BEE1F88F7E09508950E94E506B4
:100DC0006894B1110C949C0708950E94810788F0E3
:100DD0009F5798F0B92F9927B751B0F0E1F0660FFF
:100DE000771F881F991F1AF0BA95C9F714C0B13040
:100DF00091F00E949B07B1E008950C949B07672F28
:100E0000782F8827B85F39F0B93FCCF3869577956E
:100E10006795B395D9F73EF4909580957095619557
:100E20007F4F8F4F9F4F0895E89409C097FB3EF482
:100E300090958095709561957F4F8F4F9F4F992327
:100E4000A9F0F92F96E9BB279395F69587957795A5
:100E50006795B795F111F8CFFAF4BB0F11F460FF65
:100E60001BC06F5F7F4F8F4F9F4F16C0882311F0BD
:100E700096E911C0772321F09EE8872F762F05C0D1
:100E8000662371F096E8862F70E060E02AF09A956C
:100E9000660F771F881FDAF7880F9695879597F961
:100EA000089597F99F6780E870E060E008959FEFEC
:100EB00080EC089500240A941616170618060906F1
:100EC000089500240A9412161306140605060895C0
:100ED000092E0394000C11F4882352F0BB0F40F448
:100EE000BF2B11F460FF04C06F5F7F4F8F4F9F4F88
:100EF000089557FD9058440F551F59F05F3F71F00A
:100F00004795880F97FB991F61F09F3F79F0879570
:100F10000895121613061406551FF2CF4695F1DFF9
:100F200008C0161617061806991FF1CF8695710589
:100F3000610508940895E894BB2766277727CB01BD
:100F400097F908950E94B5070C9468070E945A0704
:100F500038F00E94610720F0952311F00C9451079E
:100F60000C94570711240C949C070E94790770F386
:100F7000959FC1F3950F50E0551F629FF001729F3E
:100F8000BB27F00DB11D639FAA27F00DB11DAA1F4D
:100F9000649F6627B00DA11D661F829F2227B00D9A
:100FA000A11D621F739FB00DA11D621F839FA00D25
:100FB000611D221F749F3327A00D611D231F849F75
:100FC000600D211D822F762F6A2F11249F575040CC
:100FD0009AF0F1F088234AF0EE0FFF1FBB1F661F47
:100FE000771F881F91505040A9F79E3F510580F010
:100FF0000C9451070C949C075F3FE4F3983ED4F3A4
:10100000869577956795B795F795E7959F5FC1F7B3
:10101000FE2B880F911D9695879597F90895AEE060
:10102000B0E0E5E1F8E00C94D00A0D891E8986E075
:101030008C831A8309838FEF9FE79E838D83AE0194
:10104000475E5F4F6F89788DCE0101960E9432080E
:101050002F813885020F131FF80110822E96E4E0CD
:101060000C94EC0AABE0B0E0E8E3F8E00C94C30ABF
:101070006C017B018A01FC0117821682838181FF4A
:10108000DAC19AE0492EF6012381F70123FD85910B
:1010900023FF81917F01811509F41FC1853239F445
:1010A00023FD959123FF91917F01953229F4B6019B
:1010B00090E00E94340AE7CF30E0612C512C712C73
:1010C000F0E27F1640F59B32D9F058F49032D1F01F
:1010D0009332F1F09E3299F576FCFFC0689476F871
:1010E00006C09D3291F09033C1F4689470F8F70116
:1010F00023FD959123FF91917F019111E1CF29C0AB
:10110000689471F8689472F8F2CF689473F8EFCF2E
:10111000689474F8ECCF77FC1CC080ED890F8A309E
:10112000C8F676FE05C0649C800D1124682EDFCFC2
:10113000549C800D1124582E689475F8D8CF9C3695
:1011400019F4689477F8D3CF9C3409F44BC09836DF
:1011500071F2892F8F7D8554833008F445C0933612
:1011600009F466C0933709F469C0933509F475C072
:10117000943619F0993609F09FC0F80177FE95C0B2
:1011800061917191819191918F01272D2F76722E0E
:1011900097FF09C090958095709561957F4F8F4F0F
:1011A0009F4F689477F82AE030E0AE014F5F5F4FC1
:1011B0005A010E94640A8A19A82E76FEC5C0872D9E
:1011C0008E7FA61408F0BFC074FE12C172FC06C167
:1011D000F72DFE7E7F2EB62C872D8678811509F49B
:1011E000C0C001C131E083CF3115F9F0085F1F4F56
:1011F0008FE3898388248394912CAE014F5F5F4FE6
:101200005A01E89477F873FC03C085149104B0F197
:1012100081149104D1F5511409F435CFB60180E25F
:1012200090E00E94340A5A94F6CF0C5F1F4FE0CF33
:10123000F801808189830E5F1F4FDCCFF801A190F8
:10124000B1908F01662D70E076FC02C06FEF7FEFEA
:10125000C5010E94290A4C01D4CFF801A190B19098
:101260008F01662D70E076FC02C06FEF7FEFC50145
:101270000E941E0A4C01689477F8C5CFB60180E23F
:1012800090E00E94340A5A94C0CFF50177FC859112
:1012900077FE81915F01B60190E00E94340A5110FF
:1012A0005A94F1E08F1A9108B3CF61917191072E92
:1012B000000C880B990B68CF372CE89434F82AE09F
:1012C00030E0953739F1572D597F352E903799F009
:1012D00058F49835A9F09F36D9F0F60186819781A8
:1012E0002B96E1E10C94DF0A9837B9F774FC05C03E
:1012F00020E130E00FC0689434F8689432F8F8CFF9
:1013000074FE03C0872D8660382E20E132E002C0D3
:1013100028E030E0F80137FE11C0619171918191B0
:1013200091918F01FE0131965F01AF010E94640A25
:101330008A19A82E732CE89477F83FCF61917191A8
:1013400080E090E0EECF782EBA2C74FE45CFFE01FF
:10135000EA0DF11D8081803309F043C0272D297EDD
:10136000722E73FC0EC070FE4FC06A2CB51418F4B8
:10137000650C6B18B52C852D8B195B1408F480E077
:10138000B80EB51408F042C05B1874FE41C0B60137
:1013900080E390E00E94340A72FE09C088E590E084
:1013A00071FC02C088E790E0B6010E94340AA614DE
:1013B000D8F1AA94B12C4FEFA41AB40ACE01019629
:1013C0003C01A80EB91EF50182915F01B60190E0C3
:1013D0000E94340A6A147B04B1F71DCFB62C782E14
:1013E000B6CF72FC02C0B394BCCFB394B394B9CF60
:1013F000B62C782EF1CEB60180E290E00E94340A3D
:1014000033943514C0F3B7CF3B2CFBCF512CBDCF59
:10141000872D8678811559F280E271FC8BE277FC8A
:101420008DE2B60190E0C1CFB60180E390E00E946A
:10143000340A6A94BCCF8FEF9FEF52CFFC01059026
:10144000615070400110D8F7809590958E0F9F1FC6
:101450000895FC016150704001900110D8F780950B
:1014600090958E0F9F1F08950F931F93CF93DF9337
:10147000182F092FEB018B8181FD09C01FEF0FEFA2
:10148000812F902FDF91CF911F910F91089582FFAF
:1014900014C02E813F818C819D81281739073CF42F
:1014A000E881F981CF0101969983888310838E8129
:1014B0009F8101969F838E83E3CFE885F985812FF5
:1014C0000995892BA1F3DACFFA01AA27283051F127
:1014D000203181F1E8946F936E7F6E5F7F4F8F4F65
:1014E0009F4FAF4FB1E03ED0B4E03CD0670F781FC4
:1014F000891F9A1FA11D680F791F8A1F911DA11DA9
:101500006A0F711D811D911DA11D20D009F46894E1
:101510003F912AE0269F11243019305D3193DEF689
:10152000CF010895462F4770405D4193B3E00FD03F
:10153000C9F7F6CF462F4F70405D4A3318F0495D2A
:1015400031FD4052419302D0A9F7EACFB4E0A6950D
:101550009795879577956795BA95C9F7009761052F
:10156000710508959B01AC010A2E06945795479585
:1015700037952795BA95C9F7620F731F841F951F7A
:10158000A01D08952F923F924F925F926F927F928B
:101590008F929F92AF92BF92CF92DF92EF92FF9283
:1015A0000F931F93CF93DF93CDB7DEB7CA1BDB0B2F
:1015B0000FB6F894DEBF0FBECDBF09942A883988D4
:1015C00048885F846E847D848C849B84AA84B984DB
:1015D000C884DF80EE80FD800C811B81AA81B981E7
:1015E000CE0FD11D0FB6F894DEBF0FBECDBFED01FB
:0615F0000895F894FFCFFE
:1015F6003738392F3435362A3132332D63303D2B87
:101606000001020304050607FC60DAF266B6BEE0D6
:10161600FEF625642E2530326420560025642E25DC
:1016260030326420430025642E2530326420500079
:101636004C696768743A200054656D703A00536DC2
:061646006F6B653A000025
:00000001FF
